{
  "contractName": "ETECHToken",
  "abi": [
    {
      "constant": true,
      "inputs": [],
      "name": "name",
      "outputs": [
        {
          "name": "",
          "type": "string"
        }
      ],
      "payable": false,
      "stateMutability": "view",
      "type": "function"
    },
    {
      "constant": true,
      "inputs": [],
      "name": "decimals",
      "outputs": [
        {
          "name": "",
          "type": "uint8"
        }
      ],
      "payable": false,
      "stateMutability": "view",
      "type": "function"
    },
    {
      "constant": true,
      "inputs": [],
      "name": "_totalSupply",
      "outputs": [
        {
          "name": "",
          "type": "uint256"
        }
      ],
      "payable": false,
      "stateMutability": "view",
      "type": "function"
    },
    {
      "constant": false,
      "inputs": [],
      "name": "acceptOwnership",
      "outputs": [],
      "payable": false,
      "stateMutability": "nonpayable",
      "type": "function"
    },
    {
      "constant": true,
      "inputs": [],
      "name": "owner",
      "outputs": [
        {
          "name": "",
          "type": "address"
        }
      ],
      "payable": false,
      "stateMutability": "view",
      "type": "function"
    },
    {
      "constant": true,
      "inputs": [],
      "name": "symbol",
      "outputs": [
        {
          "name": "",
          "type": "string"
        }
      ],
      "payable": false,
      "stateMutability": "view",
      "type": "function"
    },
    {
      "constant": true,
      "inputs": [
        {
          "name": "a",
          "type": "uint256"
        },
        {
          "name": "b",
          "type": "uint256"
        }
      ],
      "name": "safeSub",
      "outputs": [
        {
          "name": "c",
          "type": "uint256"
        }
      ],
      "payable": false,
      "stateMutability": "pure",
      "type": "function"
    },
    {
      "constant": true,
      "inputs": [
        {
          "name": "a",
          "type": "uint256"
        },
        {
          "name": "b",
          "type": "uint256"
        }
      ],
      "name": "safeDiv",
      "outputs": [
        {
          "name": "c",
          "type": "uint256"
        }
      ],
      "payable": false,
      "stateMutability": "pure",
      "type": "function"
    },
    {
      "constant": true,
      "inputs": [
        {
          "name": "a",
          "type": "uint256"
        },
        {
          "name": "b",
          "type": "uint256"
        }
      ],
      "name": "safeMul",
      "outputs": [
        {
          "name": "c",
          "type": "uint256"
        }
      ],
      "payable": false,
      "stateMutability": "pure",
      "type": "function"
    },
    {
      "constant": true,
      "inputs": [],
      "name": "newOwner",
      "outputs": [
        {
          "name": "",
          "type": "address"
        }
      ],
      "payable": false,
      "stateMutability": "view",
      "type": "function"
    },
    {
      "constant": true,
      "inputs": [
        {
          "name": "a",
          "type": "uint256"
        },
        {
          "name": "b",
          "type": "uint256"
        }
      ],
      "name": "safeAdd",
      "outputs": [
        {
          "name": "c",
          "type": "uint256"
        }
      ],
      "payable": false,
      "stateMutability": "pure",
      "type": "function"
    },
    {
      "constant": false,
      "inputs": [
        {
          "name": "_newOwner",
          "type": "address"
        }
      ],
      "name": "transferOwnership",
      "outputs": [],
      "payable": false,
      "stateMutability": "nonpayable",
      "type": "function"
    },
    {
      "inputs": [],
      "payable": false,
      "stateMutability": "nonpayable",
      "type": "constructor"
    },
    {
      "payable": true,
      "stateMutability": "payable",
      "type": "fallback"
    },
    {
      "anonymous": false,
      "inputs": [
        {
          "indexed": true,
          "name": "_from",
          "type": "address"
        },
        {
          "indexed": true,
          "name": "_to",
          "type": "address"
        }
      ],
      "name": "OwnershipTransferred",
      "type": "event"
    },
    {
      "anonymous": false,
      "inputs": [
        {
          "indexed": true,
          "name": "from",
          "type": "address"
        },
        {
          "indexed": true,
          "name": "to",
          "type": "address"
        },
        {
          "indexed": false,
          "name": "tokens",
          "type": "uint256"
        }
      ],
      "name": "Transfer",
      "type": "event"
    },
    {
      "anonymous": false,
      "inputs": [
        {
          "indexed": true,
          "name": "tokenOwner",
          "type": "address"
        },
        {
          "indexed": true,
          "name": "spender",
          "type": "address"
        },
        {
          "indexed": false,
          "name": "tokens",
          "type": "uint256"
        }
      ],
      "name": "Approval",
      "type": "event"
    },
    {
      "constant": true,
      "inputs": [],
      "name": "totalSupply",
      "outputs": [
        {
          "name": "",
          "type": "uint256"
        }
      ],
      "payable": false,
      "stateMutability": "view",
      "type": "function"
    },
    {
      "constant": true,
      "inputs": [
        {
          "name": "tokenOwner",
          "type": "address"
        }
      ],
      "name": "balanceOf",
      "outputs": [
        {
          "name": "balance",
          "type": "uint256"
        }
      ],
      "payable": false,
      "stateMutability": "view",
      "type": "function"
    },
    {
      "constant": false,
      "inputs": [
        {
          "name": "to",
          "type": "address"
        },
        {
          "name": "tokens",
          "type": "uint256"
        }
      ],
      "name": "transfer",
      "outputs": [
        {
          "name": "success",
          "type": "bool"
        }
      ],
      "payable": false,
      "stateMutability": "nonpayable",
      "type": "function"
    },
    {
      "constant": false,
      "inputs": [
        {
          "name": "spender",
          "type": "address"
        },
        {
          "name": "tokens",
          "type": "uint256"
        }
      ],
      "name": "approve",
      "outputs": [
        {
          "name": "success",
          "type": "bool"
        }
      ],
      "payable": false,
      "stateMutability": "nonpayable",
      "type": "function"
    },
    {
      "constant": false,
      "inputs": [
        {
          "name": "from",
          "type": "address"
        },
        {
          "name": "to",
          "type": "address"
        },
        {
          "name": "tokens",
          "type": "uint256"
        }
      ],
      "name": "transferFrom",
      "outputs": [
        {
          "name": "success",
          "type": "bool"
        }
      ],
      "payable": false,
      "stateMutability": "nonpayable",
      "type": "function"
    },
    {
      "constant": true,
      "inputs": [
        {
          "name": "tokenOwner",
          "type": "address"
        },
        {
          "name": "spender",
          "type": "address"
        }
      ],
      "name": "allowance",
      "outputs": [
        {
          "name": "remaining",
          "type": "uint256"
        }
      ],
      "payable": false,
      "stateMutability": "view",
      "type": "function"
    },
    {
      "constant": false,
      "inputs": [
        {
          "name": "spender",
          "type": "address"
        },
        {
          "name": "tokens",
          "type": "uint256"
        },
        {
          "name": "data",
          "type": "bytes"
        }
      ],
      "name": "approveAndCall",
      "outputs": [
        {
          "name": "success",
          "type": "bool"
        }
      ],
      "payable": false,
      "stateMutability": "nonpayable",
      "type": "function"
    },
    {
      "constant": false,
      "inputs": [
        {
          "name": "tokenAddress",
          "type": "address"
        },
        {
          "name": "tokens",
          "type": "uint256"
        }
      ],
      "name": "transferAnyERC20Token",
      "outputs": [
        {
          "name": "success",
          "type": "bool"
        }
      ],
      "payable": false,
      "stateMutability": "nonpayable",
      "type": "function"
    }
  ],
  "bytecode": "0x608060405234801561001057600080fd5b5060008054600160a060020a03191633600160a060020a03161790556040805180820190915260058082527f4554454348000000000000000000000000000000000000000000000000000000602090920191825261007091600291610154565b5060408051808201909152601d8082527f457863656c6c656e636520546563686e6f6c6f6769657320546f6b656e00000060209092019182526100b591600391610154565b506004805460ff191660121790556a52b7d2dcc80cd2e4000000600581905573ab64708395c62ee0dd3056b57f1be30efb86ecd96000818152600660209081527f84542274a690b846ceb857dad2336e91eead0e8dab0fa62c75991d87e16fb9518490556040805194855251929391927fddf252ad1be2c89b69c2b068fc378daa952ba7f163c4a11628f55a4df523b3ef9281900390910190a36101ef565b828054600181600116156101000203166002900490600052602060002090601f016020900481019282601f1061019557805160ff19168380011785556101c2565b828001600101855582156101c2579182015b828111156101c25782518255916020019190600101906101a7565b506101ce9291506101d2565b5090565b6101ec91905b808211156101ce57600081556001016101d8565b90565b610bba806101fe6000396000f3006080604052600436106101115763ffffffff7c010000000000000000000000000000000000000000000000000000000060003504166306fdde038114610116578063095ea7b3146101a057806318160ddd146101d857806323b872dd146101ff578063313ce567146102295780633eaaf86b1461025457806370a082311461026957806379ba50971461028a5780638da5cb5b146102a157806395d89b41146102d2578063a293d1e8146102e7578063a9059cbb14610302578063b5931f7c14610326578063cae9ca5114610341578063d05c78da146103aa578063d4ee1d90146103c5578063dc39d06d146103da578063dd62ed3e146103fe578063e6cb901314610425578063f2fde38b14610440575b600080fd5b34801561012257600080fd5b5061012b610461565b6040805160208082528351818301528351919283929083019185019080838360005b8381101561016557818101518382015260200161014d565b50505050905090810190601f1680156101925780820380516001836020036101000a031916815260200191505b509250505060405180910390f35b3480156101ac57600080fd5b506101c4600160a060020a03600435166024356104ef565b604080519115158252519081900360200190f35b3480156101e457600080fd5b506101ed61055a565b60408051918252519081900360200190f35b34801561020b57600080fd5b506101c4600160a060020a036004358116906024351660443561058c565b34801561023557600080fd5b5061023e61068d565b6040805160ff9092168252519081900360200190f35b34801561026057600080fd5b506101ed610696565b34801561027557600080fd5b506101ed600160a060020a036004351661069c565b34801561029657600080fd5b5061029f6106b7565b005b3480156102ad57600080fd5b506102b6610743565b60408051600160a060020a039092168252519081900360200190f35b3480156102de57600080fd5b5061012b610752565b3480156102f357600080fd5b506101ed6004356024356107aa565b34801561030e57600080fd5b506101c4600160a060020a03600435166024356107bf565b34801561033257600080fd5b506101ed600435602435610872565b34801561034d57600080fd5b50604080516020600460443581810135601f81018490048402850184019095528484526101c4948235600160a060020a03169460248035953695946064949201919081908401838280828437509497506108939650505050505050565b3480156103b657600080fd5b506101ed600435602435610a16565b3480156103d157600080fd5b506102b6610a3b565b3480156103e657600080fd5b506101c4600160a060020a0360043516602435610a4a565b34801561040a57600080fd5b506101ed600160a060020a0360043581169060243516610b09565b34801561043157600080fd5b506101ed600435602435610b34565b34801561044c57600080fd5b5061029f600160a060020a0360043516610b44565b6003805460408051602060026001851615610100026000190190941693909304601f810184900484028201840190925281815292918301828280156104e75780601f106104bc576101008083540402835291602001916104e7565b820191906000526020600020905b8154815290600101906020018083116104ca57829003601f168201915b505050505081565b600160a060020a03338116600081815260076020908152604080832094871680845294825280832086905580518681529051929493927f8c5be1e5ebec7d5bd14f71427d1e84f3dd0314c0f7b2291e5b200ac8c7c3b925929181900390910190a35060015b92915050565b6000805260066020527f54cdd369e4e8a8515e52ca72ec816c2101831ad1f18bf44102ed171459c9b4f8546005540390565b600160a060020a0383166000908152600660205260408120546105af90836107aa565b600160a060020a03808616600090815260066020908152604080832094909455600781528382203390931682529190915220546105ec90836107aa565b600160a060020a038086166000908152600760209081526040808320338516845282528083209490945591861681526006909152205461062c9083610b34565b600160a060020a0380851660008181526006602090815260409182902094909455805186815290519193928816927fddf252ad1be2c89b69c2b068fc378daa952ba7f163c4a11628f55a4df523b3ef92918290030190a35060019392505050565b60045460ff1681565b60055481565b600160a060020a031660009081526006602052604090205490565b60015433600160a060020a039081169116146106d257600080fd5b60015460008054604051600160a060020a0393841693909116917f8be0079c531659141344cd1fd0a4f28419497f9722a3daafe3b4186f6b6457e091a3600180546000805473ffffffffffffffffffffffffffffffffffffffff19908116600160a060020a03841617909155169055565b600054600160a060020a031681565b6002805460408051602060018416156101000260001901909316849004601f810184900484028201840190925281815292918301828280156104e75780601f106104bc576101008083540402835291602001916104e7565b6000828211156107b957600080fd5b50900390565b600160a060020a0333166000908152600660205260408120546107e290836107aa565b600160a060020a0333811660009081526006602052604080822093909355908516815220546108119083610b34565b600160a060020a038085166000818152600660209081526040918290209490945580518681529051919333909316927fddf252ad1be2c89b69c2b068fc378daa952ba7f163c4a11628f55a4df523b3ef92918290030190a350600192915050565b600080821161088057600080fd5b818381151561088b57fe5b049392505050565b600160a060020a03338116600081815260076020908152604080832094881680845294825280832087905580518781529051929493927f8c5be1e5ebec7d5bd14f71427d1e84f3dd0314c0f7b2291e5b200ac8c7c3b925929181900390910190a383600160a060020a0316638f4ffcb1338530866040518563ffffffff167c01000000000000000000000000000000000000000000000000000000000281526004018085600160a060020a0316600160a060020a0316815260200184815260200183600160a060020a0316600160a060020a0316815260200180602001828103825283818151815260200191508051906020019080838360005b838110156109a557818101518382015260200161098d565b50505050905090810190601f1680156109d25780820380516001836020036101000a031916815260200191505b5095505050505050600060405180830381600087803b1580156109f457600080fd5b505af1158015610a08573d6000803e3d6000fd5b506001979650505050505050565b818102821580610a305750818382811515610a2d57fe5b04145b151561055457600080fd5b600154600160a060020a031681565b6000805433600160a060020a03908116911614610a6657600080fd5b60008054604080517fa9059cbb000000000000000000000000000000000000000000000000000000008152600160a060020a0392831660048201526024810186905290519186169263a9059cbb926044808401936020939083900390910190829087803b158015610ad657600080fd5b505af1158015610aea573d6000803e3d6000fd5b505050506040513d6020811015610b0057600080fd5b50519392505050565b600160a060020a03918216600090815260076020908152604080832093909416825291909152205490565b8181018281101561055457600080fd5b60005433600160a060020a03908116911614610b5f57600080fd5b6001805473ffffffffffffffffffffffffffffffffffffffff1916600160a060020a03929092169190911790555600a165627a7a72305820d1358e208c7ae214d1c28eaea90d82b1e31207bdfe3b8d6040d7cc0f60bc92d00029",
  "source": "pragma solidity ^0.4.19;\r\n// ----------------------------------------------------------------------------\r\n// 'ETECH' token contract\r\n//\r\n// Deployed to : 0x8bc0978B628C93c86aE79e53017b30363FE81840\r\n// Symbol      : ETECH\r\n// Name        : Excellece Technologies Token\r\n// Total supply: 100000000\r\n// Decimals    : 18\r\n//\r\n// Enjoy.\r\n//\r\n// (c) by Moritz Neto with BokkyPooBah / Bok Consulting Pty Ltd Au 2017. The MIT Licence.\r\n// ----------------------------------------------------------------------------\r\n\r\n// ----------------------------------------------------------------------------\r\n// Safe maths\r\n// ----------------------------------------------------------------------------\r\ncontract SafeMath {\r\n    function safeAdd(uint a, uint b) public pure returns (uint c) {\r\n        c = a + b;\r\n        require(c >= a);\r\n    }\r\n    function safeSub(uint a, uint b) public pure returns (uint c) {\r\n        require(b <= a);\r\n        c = a - b;\r\n    }\r\n    function safeMul(uint a, uint b) public pure returns (uint c) {\r\n        c = a * b;\r\n        require(a == 0 || c / a == b);\r\n    }\r\n    function safeDiv(uint a, uint b) public pure returns (uint c) {\r\n        require(b > 0);\r\n        c = a / b;\r\n    }\r\n}\r\n\r\n\r\n// ----------------------------------------------------------------------------\r\n// ERC Token Standard #20 Interface\r\n// https://github.com/ethereum/EIPs/blob/master/EIPS/eip-20-token-standard.md\r\n// ----------------------------------------------------------------------------\r\ncontract ERC20Interface {\r\n    function totalSupply() public constant returns (uint);\r\n    function balanceOf(address tokenOwner) public constant returns (uint balance);\r\n    function allowance(address tokenOwner, address spender) public constant returns (uint remaining);\r\n    function transfer(address to, uint tokens) public returns (bool success);\r\n    function approve(address spender, uint tokens) public returns (bool success);\r\n    function transferFrom(address from, address to, uint tokens) public returns (bool success);\r\n\r\n    event Transfer(address indexed from, address indexed to, uint tokens);\r\n    event Approval(address indexed tokenOwner, address indexed spender, uint tokens);\r\n}\r\n\r\n\r\n// ----------------------------------------------------------------------------\r\n// Contract function to receive approval and execute function in one call\r\n//\r\n// Borrowed from MiniMeToken\r\n// ----------------------------------------------------------------------------\r\ncontract ApproveAndCallFallBack {\r\n    function receiveApproval(address from, uint256 tokens, address token, bytes data) public;\r\n}\r\n\r\n\r\n// ----------------------------------------------------------------------------\r\n// Owned contract\r\n// ----------------------------------------------------------------------------\r\ncontract Owned {\r\n    address public owner;\r\n    address public newOwner;\r\n\r\n    event OwnershipTransferred(address indexed _from, address indexed _to);\r\n\r\n    constructor() public {\r\n        owner = msg.sender;\r\n    }\r\n\r\n    modifier onlyOwner {\r\n        require(msg.sender == owner);\r\n        _;\r\n    }\r\n\r\n    function transferOwnership(address _newOwner) public onlyOwner {\r\n        newOwner = _newOwner;\r\n    }\r\n    function acceptOwnership() public {\r\n        require(msg.sender == newOwner);\r\n        emit OwnershipTransferred(owner, newOwner);\r\n        owner = newOwner;\r\n        newOwner = address(0);\r\n    }\r\n}\r\n\r\n\r\n// ----------------------------------------------------------------------------\r\n// ERC20 Token, with the addition of symbol, name and decimals and assisted\r\n// token transfers\r\n// ----------------------------------------------------------------------------\r\ncontract ETECHToken is ERC20Interface, Owned, SafeMath {\r\n    string public symbol;\r\n    string public  name;\r\n    uint8 public decimals;\r\n    uint public _totalSupply;\r\n\r\n    mapping(address => uint) balances;\r\n    mapping(address => mapping(address => uint)) allowed;\r\n\r\n\r\n    // ------------------------------------------------------------------------\r\n    // Constructor\r\n    // ------------------------------------------------------------------------\r\n    constructor() public {\r\n        symbol = \"ETECH\";\r\n        name = \"Excellence Technologies Token\";\r\n        decimals = 18;\r\n        _totalSupply = 100000000000000000000000000;\r\n        balances[0xab64708395c62eE0DD3056b57f1Be30eFb86Ecd9] = _totalSupply;\r\n        emit Transfer(address(0), 0xab64708395c62eE0DD3056b57f1Be30eFb86Ecd9, _totalSupply);\r\n    }\r\n\r\n\r\n    // ------------------------------------------------------------------------\r\n    // Total supply\r\n    // ------------------------------------------------------------------------\r\n    function totalSupply() public constant returns (uint) {\r\n        return _totalSupply  - balances[address(0)];\r\n    }\r\n\r\n\r\n    // ------------------------------------------------------------------------\r\n    // Get the token balance for account tokenOwner\r\n    // ------------------------------------------------------------------------\r\n    function balanceOf(address tokenOwner) public constant returns (uint balance) {\r\n        return balances[tokenOwner];\r\n    }\r\n\r\n\r\n    // ------------------------------------------------------------------------\r\n    // Transfer the balance from token owner's account to to account\r\n    // - Owner's account must have sufficient balance to transfer\r\n    // - 0 value transfers are allowed\r\n    // ------------------------------------------------------------------------\r\n    function transfer(address to, uint tokens) public returns (bool success) {\r\n        balances[msg.sender] = safeSub(balances[msg.sender], tokens);\r\n        balances[to] = safeAdd(balances[to], tokens);\r\n        emit Transfer(msg.sender, to, tokens);\r\n        return true;\r\n    }\r\n\r\n\r\n    // ------------------------------------------------------------------------\r\n    // Token owner can approve for spender to transferFrom(...) tokens\r\n    // from the token owner's account\r\n    //\r\n    // https://github.com/ethereum/EIPs/blob/master/EIPS/eip-20-token-standard.md\r\n    // recommends that there are no checks for the approval double-spend attack\r\n    // as this should be implemented in user interfaces \r\n    // ------------------------------------------------------------------------\r\n    function approve(address spender, uint tokens) public returns (bool success) {\r\n        allowed[msg.sender][spender] = tokens;\r\n        emit Approval(msg.sender, spender, tokens);\r\n        return true;\r\n    }\r\n\r\n\r\n    // ------------------------------------------------------------------------\r\n    // Transfer tokens from the from account to the to account\r\n    // \r\n    // The calling account must already have sufficient tokens approve(...)-d\r\n    // for spending from the from account and\r\n    // - From account must have sufficient balance to transfer\r\n    // - Spender must have sufficient allowance to transfer\r\n    // - 0 value transfers are allowed\r\n    // ------------------------------------------------------------------------\r\n    function transferFrom(address from, address to, uint tokens) public returns (bool success) {\r\n        balances[from] = safeSub(balances[from], tokens);\r\n        allowed[from][msg.sender] = safeSub(allowed[from][msg.sender], tokens);\r\n        balances[to] = safeAdd(balances[to], tokens);\r\n        emit Transfer(from, to, tokens);\r\n        return true;\r\n    }\r\n\r\n\r\n    // ------------------------------------------------------------------------\r\n    // Returns the amount of tokens approved by the owner that can be\r\n    // transferred to the spender's account\r\n    // ------------------------------------------------------------------------\r\n    function allowance(address tokenOwner, address spender) public constant returns (uint remaining) {\r\n        return allowed[tokenOwner][spender];\r\n    }\r\n\r\n\r\n    // ------------------------------------------------------------------------\r\n    // Token owner can approve for spender to transferFrom(...) tokens\r\n    // from the token owner's account. The spender contract function\r\n    // receiveApproval(...) is then executed\r\n    // ------------------------------------------------------------------------\r\n    function approveAndCall(address spender, uint tokens, bytes data) public returns (bool success) {\r\n        allowed[msg.sender][spender] = tokens;\r\n        emit Approval(msg.sender, spender, tokens);\r\n        ApproveAndCallFallBack(spender).receiveApproval(msg.sender, tokens, this, data);\r\n        return true;\r\n    }\r\n\r\n\r\n    // ------------------------------------------------------------------------\r\n    // Don't accept ETH\r\n    // ------------------------------------------------------------------------\r\n    function () public payable {\r\n        revert();\r\n    }\r\n\r\n\r\n    // ------------------------------------------------------------------------\r\n    // Owner can transfer out any accidentally sent ERC20 tokens\r\n    // ------------------------------------------------------------------------\r\n    function transferAnyERC20Token(address tokenAddress, uint tokens) public onlyOwner returns (bool success) {\r\n        return ERC20Interface(tokenAddress).transfer(owner, tokens);\r\n    }\r\n}",
  "sourcePath": "/mnt/c/work/leave-system/leave-system-solidity-truffle/contracts/erc20.sol",
  "compiler": {
    "name": "solc",
    "version": "0.4.23+commit.124ca40d.Emscripten.clang"
  },
  "schemaVersion": "2.0.0",
  "updatedAt": "2018-05-24T05:06:53.002Z"
}