{
  "contractName": "LeaveSystem",
  "abi": [
    {
      "inputs": [],
      "payable": false,
      "stateMutability": "nonpayable",
      "type": "constructor"
    },
    {
      "anonymous": false,
      "inputs": [
        {
          "indexed": false,
          "name": "user",
          "type": "address"
        }
      ],
      "name": "UserJoined",
      "type": "event"
    },
    {
      "anonymous": false,
      "inputs": [
        {
          "indexed": false,
          "name": "user",
          "type": "address"
        },
        {
          "indexed": false,
          "name": "leaves",
          "type": "uint256"
        }
      ],
      "name": "LeaveApplied",
      "type": "event"
    },
    {
      "anonymous": false,
      "inputs": [
        {
          "indexed": false,
          "name": "leave_index",
          "type": "uint256"
        }
      ],
      "name": "LeaveApproved",
      "type": "event"
    },
    {
      "anonymous": false,
      "inputs": [
        {
          "indexed": false,
          "name": "leave_index",
          "type": "uint256"
        }
      ],
      "name": "LeaveDisallowed",
      "type": "event"
    },
    {
      "constant": false,
      "inputs": [
        {
          "name": "userId",
          "type": "uint256"
        },
        {
          "name": "leave_balance",
          "type": "uint256"
        }
      ],
      "name": "joinUser",
      "outputs": [],
      "payable": false,
      "stateMutability": "nonpayable",
      "type": "function"
    },
    {
      "constant": true,
      "inputs": [
        {
          "name": "addr",
          "type": "address"
        }
      ],
      "name": "getUser",
      "outputs": [
        {
          "name": "",
          "type": "uint256"
        }
      ],
      "payable": false,
      "stateMutability": "view",
      "type": "function"
    },
    {
      "constant": true,
      "inputs": [
        {
          "name": "addr",
          "type": "address"
        }
      ],
      "name": "getMyLeaves",
      "outputs": [
        {
          "name": "",
          "type": "uint256"
        }
      ],
      "payable": false,
      "stateMutability": "view",
      "type": "function"
    },
    {
      "constant": false,
      "inputs": [
        {
          "name": "addr",
          "type": "address"
        }
      ],
      "name": "resetLeaves",
      "outputs": [],
      "payable": false,
      "stateMutability": "nonpayable",
      "type": "function"
    },
    {
      "constant": false,
      "inputs": [
        {
          "name": "no_days",
          "type": "uint256"
        }
      ],
      "name": "applyLeave",
      "outputs": [],
      "payable": false,
      "stateMutability": "nonpayable",
      "type": "function"
    },
    {
      "constant": true,
      "inputs": [],
      "name": "getLeaveList",
      "outputs": [
        {
          "name": "",
          "type": "uint256[]"
        }
      ],
      "payable": false,
      "stateMutability": "view",
      "type": "function"
    },
    {
      "constant": true,
      "inputs": [],
      "name": "getEmployeeApprovedLeaveList",
      "outputs": [
        {
          "name": "",
          "type": "uint256[]"
        }
      ],
      "payable": false,
      "stateMutability": "view",
      "type": "function"
    },
    {
      "constant": true,
      "inputs": [],
      "name": "getEmployeePendingLeaveList",
      "outputs": [
        {
          "name": "",
          "type": "uint256[]"
        }
      ],
      "payable": false,
      "stateMutability": "view",
      "type": "function"
    },
    {
      "constant": true,
      "inputs": [
        {
          "name": "index",
          "type": "uint256"
        }
      ],
      "name": "getLeaveDetail",
      "outputs": [
        {
          "name": "",
          "type": "uint256"
        },
        {
          "name": "",
          "type": "uint256"
        },
        {
          "name": "",
          "type": "bool"
        },
        {
          "name": "",
          "type": "address"
        },
        {
          "name": "",
          "type": "uint256"
        },
        {
          "name": "",
          "type": "address"
        }
      ],
      "payable": false,
      "stateMutability": "view",
      "type": "function"
    },
    {
      "constant": false,
      "inputs": [
        {
          "name": "leave_index",
          "type": "uint256"
        }
      ],
      "name": "approveLeave",
      "outputs": [],
      "payable": false,
      "stateMutability": "nonpayable",
      "type": "function"
    },
    {
      "constant": false,
      "inputs": [
        {
          "name": "leave_index",
          "type": "uint256"
        }
      ],
      "name": "disallowLeave",
      "outputs": [],
      "payable": false,
      "stateMutability": "nonpayable",
      "type": "function"
    },
    {
      "constant": false,
      "inputs": [
        {
          "name": "employee",
          "type": "address"
        },
        {
          "name": "monthly_leaves",
          "type": "uint256"
        }
      ],
      "name": "addEmployeeLeave",
      "outputs": [],
      "payable": false,
      "stateMutability": "nonpayable",
      "type": "function"
    }
  ],
  "bytecode": "0x608060405234801561001057600080fd5b50336000806101000a81548173ffffffffffffffffffffffffffffffffffffffff021916908373ffffffffffffffffffffffffffffffffffffffff160217905550611762806100606000396000f3006080604052600436106100ba576000357c0100000000000000000000000000000000000000000000000000000000900463ffffffff16806309748585146100bf5780630c32c55c1461012b57806322dee2e9146101785780632bcce18f146101e45780636c492ce31461021b5780636f77926b1461025e57806397e7ab7c146102b5578063a39bc1ae1461030c578063c2f4a4b814610339578063d908e81514610366578063eac949e914610393578063fe4c1b2414610453575b600080fd5b3480156100cb57600080fd5b506100d46104bf565b6040518080602001828103825283818151815260200191508051906020019060200280838360005b838110156101175780820151818401526020810190506100fc565b505050509050019250505060405180910390f35b34801561013757600080fd5b50610176600480360381019080803573ffffffffffffffffffffffffffffffffffffffff169060200190929190803590602001909291905050506105dc565b005b34801561018457600080fd5b5061018d61068b565b6040518080602001828103825283818151815260200191508051906020019060200280838360005b838110156101d05780820151818401526020810190506101b5565b505050509050019250505060405180910390f35b3480156101f057600080fd5b50610219600480360381019080803590602001909291908035906020019092919050505061078d565b005b34801561022757600080fd5b5061025c600480360381019080803573ffffffffffffffffffffffffffffffffffffffff1690602001909291905050506108da565b005b34801561026a57600080fd5b5061029f600480360381019080803573ffffffffffffffffffffffffffffffffffffffff16906020019092919050505061097e565b6040518082815260200191505060405180910390f35b3480156102c157600080fd5b506102f6600480360381019080803573ffffffffffffffffffffffffffffffffffffffff1690602001909291905050506109ca565b6040518082815260200191505060405180910390f35b34801561031857600080fd5b5061033760048036038101908080359060200190929190505050610a16565b005b34801561034557600080fd5b5061036460048036038101908080359060200190929190505050610df3565b005b34801561037257600080fd5b50610391600480360381019080803590602001909291905050506110e1565b005b34801561039f57600080fd5b506103be600480360381019080803590602001909291905050506113ad565b60405180878152602001868152602001851515151581526020018473ffffffffffffffffffffffffffffffffffffffff1673ffffffffffffffffffffffffffffffffffffffff1681526020018381526020018273ffffffffffffffffffffffffffffffffffffffff1673ffffffffffffffffffffffffffffffffffffffff168152602001965050505050505060405180910390f35b34801561045f57600080fd5b5061046861159b565b6040518080602001828103825283818151815260200191508051906020019060200280838360005b838110156104ab578082015181840152602081019050610490565b505050509050019250505060405180910390f35b6060806000806000809054906101000a900473ffffffffffffffffffffffffffffffffffffffff1673ffffffffffffffffffffffffffffffffffffffff163373ffffffffffffffffffffffffffffffffffffffff1614151561052057600080fd5b60506040519080825280602002602001820160405280156105505781602001602082028038833980820191505090505b50925060009150600090505b6002805490508110156105d35760028181548110151561057857fe5b906000526020600020906005020160020160009054906101000a900460ff1615156105c6576001810183838151811015156105af57fe5b906020019060200201818152505081806001019250505b808060010191505061055c565b82935050505090565b6000809054906101000a900473ffffffffffffffffffffffffffffffffffffffff1673ffffffffffffffffffffffffffffffffffffffff163373ffffffffffffffffffffffffffffffffffffffff1614151561063757600080fd5b80600160008473ffffffffffffffffffffffffffffffffffffffff1673ffffffffffffffffffffffffffffffffffffffff168152602001908152602001600020600101600082825401925050819055505050565b60608060008060506040519080825280602002602001820160405280156106c15781602001602082028038833980820191505090505b50925060009150600090505b600280549050811015610784573373ffffffffffffffffffffffffffffffffffffffff1660028281548110151561070057fe5b906000526020600020906005020160020160019054906101000a900473ffffffffffffffffffffffffffffffffffffffff1673ffffffffffffffffffffffffffffffffffffffff1614156107775760018101838381518110151561076057fe5b906020019060200201818152505081806001019250505b80806001019150506106cd565b82935050505090565b6107956116b7565b6000831115156107a457600080fd5b6000821115156107b357600080fd5b6000600160003373ffffffffffffffffffffffffffffffffffffffff1673ffffffffffffffffffffffffffffffffffffffff1681526020019081526020016000206000015414151561080457600080fd5b604080519081016040528084815260200183815250905080600160003373ffffffffffffffffffffffffffffffffffffffff1673ffffffffffffffffffffffffffffffffffffffff16815260200190815260200160002060008201518160000155602082015181600101559050507f4028b92b6812cf0ad64ad14283561bd81eaf1d9e718a6eabcfd40016f83bd1e933604051808273ffffffffffffffffffffffffffffffffffffffff1673ffffffffffffffffffffffffffffffffffffffff16815260200191505060405180910390a1505050565b6000809054906101000a900473ffffffffffffffffffffffffffffffffffffffff1673ffffffffffffffffffffffffffffffffffffffff163373ffffffffffffffffffffffffffffffffffffffff1614151561093557600080fd5b600160008273ffffffffffffffffffffffffffffffffffffffff1673ffffffffffffffffffffffffffffffffffffffff1681526020019081526020016000206001016000905550565b6000600160008373ffffffffffffffffffffffffffffffffffffffff1673ffffffffffffffffffffffffffffffffffffffff168152602001908152602001600020600001549050919050565b6000600160008373ffffffffffffffffffffffffffffffffffffffff1673ffffffffffffffffffffffffffffffffffffffff168152602001908152602001600020600101549050919050565b610a1e6116d1565b6000809054906101000a900473ffffffffffffffffffffffffffffffffffffffff1673ffffffffffffffffffffffffffffffffffffffff163373ffffffffffffffffffffffffffffffffffffffff16141515610a7957600080fd5b600282815481101515610a8857fe5b906000526020600020906005020160c0604051908101604052908160008201548152602001600182015481526020016002820160009054906101000a900460ff161515151581526020016002820160019054906101000a900473ffffffffffffffffffffffffffffffffffffffff1673ffffffffffffffffffffffffffffffffffffffff1673ffffffffffffffffffffffffffffffffffffffff168152602001600382015481526020016004820160009054906101000a900473ffffffffffffffffffffffffffffffffffffffff1673ffffffffffffffffffffffffffffffffffffffff1673ffffffffffffffffffffffffffffffffffffffff16815250509050806020015160016000836060015173ffffffffffffffffffffffffffffffffffffffff1673ffffffffffffffffffffffffffffffffffffffff16815260200190815260200160002060010154111515610be157600080fd5b806020015160016000836060015173ffffffffffffffffffffffffffffffffffffffff1673ffffffffffffffffffffffffffffffffffffffff168152602001908152602001600020600101540360016000836060015173ffffffffffffffffffffffffffffffffffffffff1673ffffffffffffffffffffffffffffffffffffffff168152602001908152602001600020600101819055506001816040019015159081151581525050338160a0019073ffffffffffffffffffffffffffffffffffffffff16908173ffffffffffffffffffffffffffffffffffffffff16815250504281608001818152505080600283815481101515610cdb57fe5b9060005260206000209060050201600082015181600001556020820151816001015560408201518160020160006101000a81548160ff02191690831515021790555060608201518160020160016101000a81548173ffffffffffffffffffffffffffffffffffffffff021916908373ffffffffffffffffffffffffffffffffffffffff1602179055506080820151816003015560a08201518160040160006101000a81548173ffffffffffffffffffffffffffffffffffffffff021916908373ffffffffffffffffffffffffffffffffffffffff1602179055509050507f6527aed85d4bdb1699f360f8e892c09647c21c6f0d916171145095a2b0f99e37826040518082815260200191505060405180910390a15050565b610dfb6116d1565b6000809054906101000a900473ffffffffffffffffffffffffffffffffffffffff1673ffffffffffffffffffffffffffffffffffffffff163373ffffffffffffffffffffffffffffffffffffffff16141515610e5657600080fd5b600282815481101515610e6557fe5b906000526020600020906005020160c0604051908101604052908160008201548152602001600182015481526020016002820160009054906101000a900460ff161515151581526020016002820160019054906101000a900473ffffffffffffffffffffffffffffffffffffffff1673ffffffffffffffffffffffffffffffffffffffff1673ffffffffffffffffffffffffffffffffffffffff168152602001600382015481526020016004820160009054906101000a900473ffffffffffffffffffffffffffffffffffffffff1673ffffffffffffffffffffffffffffffffffffffff1673ffffffffffffffffffffffffffffffffffffffff168152505090506000816040019015159081151581525050338160a0019073ffffffffffffffffffffffffffffffffffffffff16908173ffffffffffffffffffffffffffffffffffffffff16815250504281608001818152505080600283815481101515610fc957fe5b9060005260206000209060050201600082015181600001556020820151816001015560408201518160020160006101000a81548160ff02191690831515021790555060608201518160020160016101000a81548173ffffffffffffffffffffffffffffffffffffffff021916908373ffffffffffffffffffffffffffffffffffffffff1602179055506080820151816003015560a08201518160040160006101000a81548173ffffffffffffffffffffffffffffffffffffffff021916908373ffffffffffffffffffffffffffffffffffffffff1602179055509050507f8ccc4e72d664fa5c7a52e2d8e0c075715e11bde86ce9840f2a92b01cf90951a4826040518082815260200191505060405180910390a15050565b60006110eb6116d1565b6000831115156110fa57600080fd5b6000600160003373ffffffffffffffffffffffffffffffffffffffff1673ffffffffffffffffffffffffffffffffffffffff16815260200190815260200160002060000154141561114a57600080fd5b82600160003373ffffffffffffffffffffffffffffffffffffffff1673ffffffffffffffffffffffffffffffffffffffff1681526020019081526020016000206001015411151561119a57600080fd5b600160003373ffffffffffffffffffffffffffffffffffffffff1673ffffffffffffffffffffffffffffffffffffffff16815260200190815260200160002060000154915060c0604051908101604052808381526020018481526020016000151581526020013373ffffffffffffffffffffffffffffffffffffffff16815260200160008152602001600073ffffffffffffffffffffffffffffffffffffffff16815250905060028190806001815401808255809150509060018203906000526020600020906005020160009091929091909150600082015181600001556020820151816001015560408201518160020160006101000a81548160ff02191690831515021790555060608201518160020160016101000a81548173ffffffffffffffffffffffffffffffffffffffff021916908373ffffffffffffffffffffffffffffffffffffffff1602179055506080820151816003015560a08201518160040160006101000a81548173ffffffffffffffffffffffffffffffffffffffff021916908373ffffffffffffffffffffffffffffffffffffffff1602179055505050507f5b1c7e0d74c949689e7dda74fc61f454bbf5895102bb71b95a7af806102cf0cb3384604051808373ffffffffffffffffffffffffffffffffffffffff1673ffffffffffffffffffffffffffffffffffffffff1681526020018281526020019250505060405180910390a1505050565b6000806000806000806113be6116d1565b6002888154811015156113cd57fe5b906000526020600020906005020160c0604051908101604052908160008201548152602001600182015481526020016002820160009054906101000a900460ff161515151581526020016002820160019054906101000a900473ffffffffffffffffffffffffffffffffffffffff1673ffffffffffffffffffffffffffffffffffffffff1673ffffffffffffffffffffffffffffffffffffffff168152602001600382015481526020016004820160009054906101000a900473ffffffffffffffffffffffffffffffffffffffff1673ffffffffffffffffffffffffffffffffffffffff1673ffffffffffffffffffffffffffffffffffffffff168152505090503373ffffffffffffffffffffffffffffffffffffffff16816060015173ffffffffffffffffffffffffffffffffffffffff16148061155857506000809054906101000a900473ffffffffffffffffffffffffffffffffffffffff1673ffffffffffffffffffffffffffffffffffffffff163373ffffffffffffffffffffffffffffffffffffffff16145b1561158c57806000015181602001518260400151836060015184608001518560a00151965096509650965096509650611591565b600080fd5b5091939550919395565b6060806000806000809054906101000a900473ffffffffffffffffffffffffffffffffffffffff1673ffffffffffffffffffffffffffffffffffffffff163373ffffffffffffffffffffffffffffffffffffffff161415156115fc57600080fd5b605060405190808252806020026020018201604052801561162c5781602001602082028038833980820191505090505b50925060009150600090505b6002805490508110156116ae5760028181548110151561165457fe5b906000526020600020906005020160020160009054906101000a900460ff16156116a15760018101838381518110151561168a57fe5b906020019060200201818152505081806001019250505b8080600101915050611638565b82935050505090565b604080519081016040528060008152602001600081525090565b60c0604051908101604052806000815260200160008152602001600015158152602001600073ffffffffffffffffffffffffffffffffffffffff16815260200160008152602001600073ffffffffffffffffffffffffffffffffffffffff16815250905600a165627a7a72305820566d38e1ebea9a5e1ab7966088d60032947e27ef0d05ad49750b4f57d07020ec0029",
  "source": "pragma solidity ^0.4.19;\n\ncontract LeaveSystem {\n    //data type of employee\n\tstruct Employee {\n\t    uint id; // id of employee from database\n\t    uint leaves;  //starting leave balance of employee\n\t}\n\t\n\tstruct Leave {\n\t    uint id;  //actual id of leave from database\n\t    uint no_days;  //number of days for which leave is applied\n\t    bool approved; // if leave is approved or not \n\t    address by; // person who applied the leave\n\t    uint action_at; // at what time was leave approved/disallowed \n\t    address action_by; // who approved/disallowed leave\n\t}\n\t\n\t//owner of the contract \n\taddress owner;\n\t\n\t//maintain a leave balance\n\tmapping (address => Employee) private leaveBalance;\n    \n    Leave[] private leaves;\n\t\n\tmodifier isOwner { require(msg.sender == owner); _; }\n\t\n\t//constructor\n\tfunction LeaveSystem() public {\n\t    owner = msg.sender;\n\t}\n\t\n\t//event to notify when a new user has joined\n\tevent UserJoined(address user);\n\tevent LeaveApplied(address user, uint leaves);\n\tevent LeaveApproved(uint leave_index);\n\tevent LeaveDisallowed(uint leave_index);\n\t\n\t//function to add user to contract\n\tfunction joinUser(uint userId, uint leave_balance) public {\n\t    require(userId > 0);  //actual database user id from hr system\n\t    require(leave_balance > 0);  //no leaves user has from hr system\n\t    if(leaveBalance[msg.sender].id != 0) revert(); //revert if user already exists\n\t    \n\t    Employee memory user = Employee(userId, leave_balance);\n\t    leaveBalance[msg.sender] = user;\n\t    \n\t    UserJoined(msg.sender);\n\t}\n\n\t//get user details. this will simply check if user \n\t//exists or not. it will return 0 if user doesn't exist\n\tfunction getUser(address addr) public constant returns (uint){\n\t\treturn leaveBalance[addr].id;\n\t}\n\n\tfunction getMyLeaves(address addr) public constant returns (uint) {\n\t\treturn leaveBalance[addr].leaves;\n\t}\n\t\n\tfunction resetLeaves(address addr) public isOwner {\n\t    delete leaveBalance[addr].leaves;\n\t}\n\t\n\tfunction applyLeave(uint no_days) public{\n\t     require(no_days > 0);\n\t     if(leaveBalance[msg.sender].id == 0) revert();\n\t     require(leaveBalance[msg.sender].leaves > no_days);\n\t     \n\t     uint id = leaveBalance[msg.sender].id;\n\t     Leave memory leave = Leave(id,no_days, false, msg.sender,0,address(0));\n\t     leaves.push(leave);\n\t     LeaveApplied(msg.sender,no_days);\n\t}\n\t\n\tfunction getLeaveList() public constant returns (uint[]) {\n\t    //maximum restriction of 80 leaves\n\t    uint[] memory indexs = new uint[](80);\n\t    uint j = 0;\n\t    for(uint i=0;i<leaves.length;i++){\n\t        if(leaves[i].by == msg.sender){\n\t            indexs[j] = i+1;\n\t            j++;\n\t        }\n\t    }\n\t    return indexs;\n\t}\n\t\n\tfunction getEmployeeApprovedLeaveList() public isOwner constant returns (uint[]){\n\t    //maximum restriction of 80 leaves\n\t    uint[] memory indexs = new uint[](80);\n\t    uint j = 0;\n\t    for(uint i=0;i<leaves.length;i++){\n\t        if(leaves[i].approved){\n\t            indexs[j] = i+1;\n\t            j++;\n\t        }\n\t    }\n\t    return indexs;\n\t}\n\t\n\tfunction getEmployeePendingLeaveList() public isOwner constant returns (uint[]){\n\t    //maximum restriction of 80 leaves\n\t    uint[] memory indexs = new uint[](80);\n\t    uint j = 0;\n\t    for(uint i=0;i<leaves.length;i++){\n\t        if(!leaves[i].approved){\n\t            indexs[j] = i+1;\n\t            j++;\n\t        }\n\t    }\n\t    return indexs;\n\t}\n\t\n\tfunction getLeaveDetail(uint index) public constant returns (uint, uint, bool, address, uint, address){\n        Leave memory _leave = leaves[index];\n        if(_leave.by == msg.sender || msg.sender == owner){\n            return (_leave.id, _leave.no_days, _leave.approved, _leave.by, _leave.action_at, _leave.action_by);\n        }else{\n            revert();\n        }\n\t}\n\t\n\tfunction approveLeave(uint leave_index) public isOwner{\n\t    Leave memory leave = leaves[leave_index];\n\t    require(leaveBalance[leave.by].leaves > leave.no_days);\n\t    leaveBalance[leave.by].leaves = leaveBalance[leave.by].leaves - leave.no_days;\n\t    leave.approved = true;\n\t    leave.action_by = msg.sender;\n\t    leave.action_at = now;\n\t    leaves[leave_index] = leave;\n\t    //delete leaves[leave_index];\n\t    // if we don't delete the leaves it will keep on charging more gas.\n\t    // https://ethereum.stackexchange.com/questions/872/what-is-the-cost-to-store-1kb-10kb-100kb-worth-of-data-into-the-ethereum-block\n\t    // so need a better solution\n\t    // but we need to keep all leave history as well.\n\t    LeaveApproved(leave_index);\n\t}\n\t\n\tfunction disallowLeave(uint leave_index) public isOwner{\n\t    Leave memory leave = leaves[leave_index];\n\t    leave.approved = false;\n\t    leave.action_by = msg.sender;\n\t    leave.action_at = now;\n\t    leaves[leave_index] = leave;\n\t    LeaveDisallowed(leave_index);\n\t}\n\t\n\t//employee earn leaves every month\n\tfunction addEmployeeLeave(address employee, uint monthly_leaves) public isOwner {\n\t    leaveBalance[employee].leaves += monthly_leaves;\n\t}\n}",
  "sourcePath": "/mnt/c/work/leave-system-solidity-truffle/contracts/LeaveSystem.sol",
  "compiler": {
    "name": "solc",
    "version": "0.4.23+commit.124ca40d.Emscripten.clang"
  },
  "schemaVersion": "2.0.0",
  "updatedAt": "2018-05-12T09:19:27.713Z"
}