{
  "contractName": "LeaveSystem",
  "abi": [
    {
      "inputs": [],
      "payable": false,
      "stateMutability": "nonpayable",
      "type": "constructor"
    },
    {
      "anonymous": false,
      "inputs": [
        {
          "indexed": false,
          "name": "user",
          "type": "address"
        }
      ],
      "name": "UserJoined",
      "type": "event"
    },
    {
      "anonymous": false,
      "inputs": [
        {
          "indexed": false,
          "name": "user",
          "type": "address"
        },
        {
          "indexed": false,
          "name": "leaves",
          "type": "uint256"
        }
      ],
      "name": "LeaveApplied",
      "type": "event"
    },
    {
      "anonymous": false,
      "inputs": [
        {
          "indexed": false,
          "name": "leave_index",
          "type": "uint256"
        }
      ],
      "name": "LeaveApproved",
      "type": "event"
    },
    {
      "anonymous": false,
      "inputs": [
        {
          "indexed": false,
          "name": "leave_index",
          "type": "uint256"
        }
      ],
      "name": "LeaveDisallowed",
      "type": "event"
    },
    {
      "constant": false,
      "inputs": [
        {
          "name": "userId",
          "type": "uint256"
        },
        {
          "name": "leave_balance",
          "type": "uint256"
        }
      ],
      "name": "joinUser",
      "outputs": [],
      "payable": false,
      "stateMutability": "nonpayable",
      "type": "function"
    },
    {
      "constant": true,
      "inputs": [
        {
          "name": "addr",
          "type": "address"
        }
      ],
      "name": "getUser",
      "outputs": [
        {
          "name": "",
          "type": "uint256"
        }
      ],
      "payable": false,
      "stateMutability": "view",
      "type": "function"
    },
    {
      "constant": true,
      "inputs": [
        {
          "name": "addr",
          "type": "address"
        }
      ],
      "name": "getMyLeaves",
      "outputs": [
        {
          "name": "",
          "type": "uint256"
        }
      ],
      "payable": false,
      "stateMutability": "view",
      "type": "function"
    },
    {
      "constant": false,
      "inputs": [
        {
          "name": "addr",
          "type": "address"
        }
      ],
      "name": "resetLeaves",
      "outputs": [],
      "payable": false,
      "stateMutability": "nonpayable",
      "type": "function"
    },
    {
      "constant": false,
      "inputs": [
        {
          "name": "no_days",
          "type": "uint256"
        }
      ],
      "name": "applyLeave",
      "outputs": [],
      "payable": false,
      "stateMutability": "nonpayable",
      "type": "function"
    },
    {
      "constant": true,
      "inputs": [],
      "name": "getLeaveList",
      "outputs": [
        {
          "name": "",
          "type": "uint256[]"
        }
      ],
      "payable": false,
      "stateMutability": "view",
      "type": "function"
    },
    {
      "constant": true,
      "inputs": [],
      "name": "getEmployeePendingLeaveList",
      "outputs": [
        {
          "name": "",
          "type": "uint256[]"
        }
      ],
      "payable": false,
      "stateMutability": "view",
      "type": "function"
    },
    {
      "constant": true,
      "inputs": [
        {
          "name": "index",
          "type": "uint256"
        }
      ],
      "name": "getLeaveDetail",
      "outputs": [
        {
          "name": "",
          "type": "uint256"
        },
        {
          "name": "",
          "type": "uint256"
        },
        {
          "name": "",
          "type": "bool"
        },
        {
          "name": "",
          "type": "address"
        },
        {
          "name": "",
          "type": "uint256"
        },
        {
          "name": "",
          "type": "address"
        }
      ],
      "payable": false,
      "stateMutability": "view",
      "type": "function"
    },
    {
      "constant": false,
      "inputs": [
        {
          "name": "leave_index",
          "type": "uint256"
        }
      ],
      "name": "approveLeave",
      "outputs": [],
      "payable": false,
      "stateMutability": "nonpayable",
      "type": "function"
    },
    {
      "constant": false,
      "inputs": [
        {
          "name": "leave_index",
          "type": "uint256"
        }
      ],
      "name": "disallowLeave",
      "outputs": [],
      "payable": false,
      "stateMutability": "nonpayable",
      "type": "function"
    },
    {
      "constant": false,
      "inputs": [
        {
          "name": "employee",
          "type": "address"
        },
        {
          "name": "monthly_leaves",
          "type": "uint256"
        }
      ],
      "name": "addEmployeeLeave",
      "outputs": [],
      "payable": false,
      "stateMutability": "nonpayable",
      "type": "function"
    }
  ],
  "bytecode": "0x6060604052341561000f57600080fd5b336000806101000a81548173ffffffffffffffffffffffffffffffffffffffff021916908373ffffffffffffffffffffffffffffffffffffffff16021790555061167d8061005e6000396000f3006060604052600436106100af576000357c0100000000000000000000000000000000000000000000000000000000900463ffffffff16806309748585146100b45780630c32c55c1461011e57806322dee2e9146101605780632bcce18f146101ca5780636c492ce3146101f65780636f77926b1461022f57806397e7ab7c1461027c578063a39bc1ae146102c9578063c2f4a4b8146102ec578063d908e8151461030f578063eac949e914610332575b600080fd5b34156100bf57600080fd5b6100c76103e8565b6040518080602001828103825283818151815260200191508051906020019060200280838360005b8381101561010a5780820151818401526020810190506100ef565b505050509050019250505060405180910390f35b341561012957600080fd5b61015e600480803573ffffffffffffffffffffffffffffffffffffffff1690602001909190803590602001909190505061053f565b005b341561016b57600080fd5b6101736105ee565b6040518080602001828103825283818151815260200191508051906020019060200280838360005b838110156101b657808201518184015260208101905061019b565b505050509050019250505060405180910390f35b34156101d557600080fd5b6101f460048080359060200190919080359060200190919050506106e9565b005b341561020157600080fd5b61022d600480803573ffffffffffffffffffffffffffffffffffffffff16906020019091905050610836565b005b341561023a57600080fd5b610266600480803573ffffffffffffffffffffffffffffffffffffffff169060200190919050506108da565b6040518082815260200191505060405180910390f35b341561028757600080fd5b6102b3600480803573ffffffffffffffffffffffffffffffffffffffff16906020019091905050610926565b6040518082815260200191505060405180910390f35b34156102d457600080fd5b6102ea6004808035906020019091905050610972565b005b34156102f757600080fd5b61030d6004808035906020019091905050610d4f565b005b341561031a57600080fd5b610330600480803590602001909190505061103d565b005b341561033d57600080fd5b6103536004808035906020019091905050611305565b60405180878152602001868152602001851515151581526020018473ffffffffffffffffffffffffffffffffffffffff1673ffffffffffffffffffffffffffffffffffffffff1681526020018381526020018273ffffffffffffffffffffffffffffffffffffffff1673ffffffffffffffffffffffffffffffffffffffff168152602001965050505050505060405180910390f35b6103f06114f3565b6103f86114f3565b6000806000809054906101000a900473ffffffffffffffffffffffffffffffffffffffff1673ffffffffffffffffffffffffffffffffffffffff163373ffffffffffffffffffffffffffffffffffffffff1614151561045657600080fd5b60506040518059106104655750595b9080825280602002602001820160405250925060009150600090505b60028054905081101561053657600073ffffffffffffffffffffffffffffffffffffffff166002828154811015156104b557fe5b906000526020600020906005020160040160009054906101000a900473ffffffffffffffffffffffffffffffffffffffff1673ffffffffffffffffffffffffffffffffffffffff1614156105295780838381518110151561051257fe5b906020019060200201818152505081806001019250505b8080600101915050610481565b82935050505090565b6000809054906101000a900473ffffffffffffffffffffffffffffffffffffffff1673ffffffffffffffffffffffffffffffffffffffff163373ffffffffffffffffffffffffffffffffffffffff1614151561059a57600080fd5b80600160008473ffffffffffffffffffffffffffffffffffffffff1673ffffffffffffffffffffffffffffffffffffffff168152602001908152602001600020600101600082825401925050819055505050565b6105f66114f3565b6105fe6114f3565b60008060506040518059106106105750595b9080825280602002602001820160405250925060009150600090505b6002805490508110156106e0573373ffffffffffffffffffffffffffffffffffffffff1660028281548110151561065f57fe5b906000526020600020906005020160020160019054906101000a900473ffffffffffffffffffffffffffffffffffffffff1673ffffffffffffffffffffffffffffffffffffffff1614156106d3578083838151811015156106bc57fe5b906020019060200201818152505081806001019250505b808060010191505061062c565b82935050505090565b6106f1611507565b60008311151561070057600080fd5b60008211151561070f57600080fd5b6000600160003373ffffffffffffffffffffffffffffffffffffffff1673ffffffffffffffffffffffffffffffffffffffff1681526020019081526020016000206000015414151561076057600080fd5b604080519081016040528084815260200183815250905080600160003373ffffffffffffffffffffffffffffffffffffffff1673ffffffffffffffffffffffffffffffffffffffff16815260200190815260200160002060008201518160000155602082015181600101559050507f4028b92b6812cf0ad64ad14283561bd81eaf1d9e718a6eabcfd40016f83bd1e933604051808273ffffffffffffffffffffffffffffffffffffffff1673ffffffffffffffffffffffffffffffffffffffff16815260200191505060405180910390a1505050565b6000809054906101000a900473ffffffffffffffffffffffffffffffffffffffff1673ffffffffffffffffffffffffffffffffffffffff163373ffffffffffffffffffffffffffffffffffffffff1614151561089157600080fd5b600160008273ffffffffffffffffffffffffffffffffffffffff1673ffffffffffffffffffffffffffffffffffffffff1681526020019081526020016000206001016000905550565b6000600160008373ffffffffffffffffffffffffffffffffffffffff1673ffffffffffffffffffffffffffffffffffffffff168152602001908152602001600020600001549050919050565b6000600160008373ffffffffffffffffffffffffffffffffffffffff1673ffffffffffffffffffffffffffffffffffffffff168152602001908152602001600020600101549050919050565b61097a611521565b6000809054906101000a900473ffffffffffffffffffffffffffffffffffffffff1673ffffffffffffffffffffffffffffffffffffffff163373ffffffffffffffffffffffffffffffffffffffff161415156109d557600080fd5b6002828154811015156109e457fe5b906000526020600020906005020160c0604051908101604052908160008201548152602001600182015481526020016002820160009054906101000a900460ff161515151581526020016002820160019054906101000a900473ffffffffffffffffffffffffffffffffffffffff1673ffffffffffffffffffffffffffffffffffffffff1673ffffffffffffffffffffffffffffffffffffffff168152602001600382015481526020016004820160009054906101000a900473ffffffffffffffffffffffffffffffffffffffff1673ffffffffffffffffffffffffffffffffffffffff1673ffffffffffffffffffffffffffffffffffffffff16815250509050806020015160016000836060015173ffffffffffffffffffffffffffffffffffffffff1673ffffffffffffffffffffffffffffffffffffffff16815260200190815260200160002060010154111515610b3d57600080fd5b806020015160016000836060015173ffffffffffffffffffffffffffffffffffffffff1673ffffffffffffffffffffffffffffffffffffffff168152602001908152602001600020600101540360016000836060015173ffffffffffffffffffffffffffffffffffffffff1673ffffffffffffffffffffffffffffffffffffffff168152602001908152602001600020600101819055506001816040019015159081151581525050338160a0019073ffffffffffffffffffffffffffffffffffffffff16908173ffffffffffffffffffffffffffffffffffffffff16815250504281608001818152505080600283815481101515610c3757fe5b9060005260206000209060050201600082015181600001556020820151816001015560408201518160020160006101000a81548160ff02191690831515021790555060608201518160020160016101000a81548173ffffffffffffffffffffffffffffffffffffffff021916908373ffffffffffffffffffffffffffffffffffffffff1602179055506080820151816003015560a08201518160040160006101000a81548173ffffffffffffffffffffffffffffffffffffffff021916908373ffffffffffffffffffffffffffffffffffffffff1602179055509050507f6527aed85d4bdb1699f360f8e892c09647c21c6f0d916171145095a2b0f99e37826040518082815260200191505060405180910390a15050565b610d57611521565b6000809054906101000a900473ffffffffffffffffffffffffffffffffffffffff1673ffffffffffffffffffffffffffffffffffffffff163373ffffffffffffffffffffffffffffffffffffffff16141515610db257600080fd5b600282815481101515610dc157fe5b906000526020600020906005020160c0604051908101604052908160008201548152602001600182015481526020016002820160009054906101000a900460ff161515151581526020016002820160019054906101000a900473ffffffffffffffffffffffffffffffffffffffff1673ffffffffffffffffffffffffffffffffffffffff1673ffffffffffffffffffffffffffffffffffffffff168152602001600382015481526020016004820160009054906101000a900473ffffffffffffffffffffffffffffffffffffffff1673ffffffffffffffffffffffffffffffffffffffff1673ffffffffffffffffffffffffffffffffffffffff168152505090506000816040019015159081151581525050338160a0019073ffffffffffffffffffffffffffffffffffffffff16908173ffffffffffffffffffffffffffffffffffffffff16815250504281608001818152505080600283815481101515610f2557fe5b9060005260206000209060050201600082015181600001556020820151816001015560408201518160020160006101000a81548160ff02191690831515021790555060608201518160020160016101000a81548173ffffffffffffffffffffffffffffffffffffffff021916908373ffffffffffffffffffffffffffffffffffffffff1602179055506080820151816003015560a08201518160040160006101000a81548173ffffffffffffffffffffffffffffffffffffffff021916908373ffffffffffffffffffffffffffffffffffffffff1602179055509050507f8ccc4e72d664fa5c7a52e2d8e0c075715e11bde86ce9840f2a92b01cf90951a4826040518082815260200191505060405180910390a15050565b6000611047611521565b60008311151561105657600080fd5b6000600160003373ffffffffffffffffffffffffffffffffffffffff1673ffffffffffffffffffffffffffffffffffffffff1681526020019081526020016000206000015414156110a657600080fd5b82600160003373ffffffffffffffffffffffffffffffffffffffff1673ffffffffffffffffffffffffffffffffffffffff168152602001908152602001600020600101541115156110f657600080fd5b600160003373ffffffffffffffffffffffffffffffffffffffff1673ffffffffffffffffffffffffffffffffffffffff16815260200190815260200160002060000154915060c0604051908101604052808381526020018481526020016000151581526020013373ffffffffffffffffffffffffffffffffffffffff16815260200160008152602001600073ffffffffffffffffffffffffffffffffffffffff168152509050600280548060010182816111b09190611586565b91600052602060002090600502016000839091909150600082015181600001556020820151816001015560408201518160020160006101000a81548160ff02191690831515021790555060608201518160020160016101000a81548173ffffffffffffffffffffffffffffffffffffffff021916908373ffffffffffffffffffffffffffffffffffffffff1602179055506080820151816003015560a08201518160040160006101000a81548173ffffffffffffffffffffffffffffffffffffffff021916908373ffffffffffffffffffffffffffffffffffffffff1602179055505050507f5b1c7e0d74c949689e7dda74fc61f454bbf5895102bb71b95a7af806102cf0cb3384604051808373ffffffffffffffffffffffffffffffffffffffff1673ffffffffffffffffffffffffffffffffffffffff1681526020018281526020019250505060405180910390a1505050565b600080600080600080611316611521565b60028881548110151561132557fe5b906000526020600020906005020160c0604051908101604052908160008201548152602001600182015481526020016002820160009054906101000a900460ff161515151581526020016002820160019054906101000a900473ffffffffffffffffffffffffffffffffffffffff1673ffffffffffffffffffffffffffffffffffffffff1673ffffffffffffffffffffffffffffffffffffffff168152602001600382015481526020016004820160009054906101000a900473ffffffffffffffffffffffffffffffffffffffff1673ffffffffffffffffffffffffffffffffffffffff1673ffffffffffffffffffffffffffffffffffffffff168152505090503373ffffffffffffffffffffffffffffffffffffffff16816060015173ffffffffffffffffffffffffffffffffffffffff1614806114b057506000809054906101000a900473ffffffffffffffffffffffffffffffffffffffff1673ffffffffffffffffffffffffffffffffffffffff163373ffffffffffffffffffffffffffffffffffffffff16145b156114e457806000015181602001518260400151836060015184608001518560a001519650965096509650965096506114e9565b600080fd5b5091939550919395565b602060405190810160405280600081525090565b604080519081016040528060008152602001600081525090565b60c0604051908101604052806000815260200160008152602001600015158152602001600073ffffffffffffffffffffffffffffffffffffffff16815260200160008152602001600073ffffffffffffffffffffffffffffffffffffffff1681525090565b8154818355818115116115b3576005028160050283600052602060002091820191016115b291906115b8565b5b505050565b61164e91905b8082111561164a5760008082016000905560018201600090556002820160006101000a81549060ff02191690556002820160016101000a81549073ffffffffffffffffffffffffffffffffffffffff021916905560038201600090556004820160006101000a81549073ffffffffffffffffffffffffffffffffffffffff0219169055506005016115be565b5090565b905600a165627a7a7230582005ad356e7666cb23d8032a2fe1e1e031c4d1c43deba43942a6ba42a6cd53758d0029",
  "source": "pragma solidity ^0.4.19;\r\n\r\ncontract LeaveSystem {\r\n    //data type of employee\r\n\tstruct Employee {\r\n\t    uint id; // id of employee from database\r\n\t    uint leaves;  //starting leave balance of employee\r\n\t}\r\n\t\r\n\tstruct Leave {\r\n\t    uint id;  //actual id of leave from database\r\n\t    uint no_days;  //number of days for which leave is applied\r\n\t    bool approved; // if leave is approved or not \r\n\t    address by; // person who applied the leave\r\n\t    uint action_at; // at what time was leave approved/disallowed \r\n\t    address action_by; // who approved/disallowed leave\r\n\t}\r\n\t\r\n\t//owner of the contract \r\n\taddress owner;\r\n\t\r\n\t//maintain a leave balance\r\n\tmapping (address => Employee) private leaveBalance;\r\n    \r\n    Leave[] private leaves;\r\n\t\r\n\tmodifier isOwner { require(msg.sender == owner); _; }\r\n\t\r\n\t//constructor\r\n\tfunction LeaveSystem() public {\r\n\t    owner = msg.sender;\r\n\t}\r\n\t\r\n\t//event to notify when a new user has joined\r\n\tevent UserJoined(address user);\r\n\tevent LeaveApplied(address user, uint leaves);\r\n\tevent LeaveApproved(uint leave_index);\r\n\tevent LeaveDisallowed(uint leave_index);\r\n\t\r\n\t//function to add user to contract\r\n\tfunction joinUser(uint userId, uint leave_balance) public {\r\n\t    require(userId > 0);  //actual database user id from hr system\r\n\t    require(leave_balance > 0);  //no leaves user has from hr system\r\n\t    if(leaveBalance[msg.sender].id != 0) revert(); //revert if user already exists\r\n\t    \r\n\t    Employee memory user = Employee(userId, leave_balance);\r\n\t    leaveBalance[msg.sender] = user;\r\n\t    \r\n\t    UserJoined(msg.sender);\r\n\t}\r\n\r\n\t//get user details. this will simply check if user \r\n\t//exists or not. it will return 0 if user doesn't exist\r\n\tfunction getUser(address addr) public constant returns (uint){\r\n\t\treturn leaveBalance[addr].id;\r\n\t}\r\n\r\n\tfunction getMyLeaves(address addr) public constant returns (uint) {\r\n\t\treturn leaveBalance[addr].leaves;\r\n\t}\r\n\t\r\n\tfunction resetLeaves(address addr) public isOwner {\r\n\t    delete leaveBalance[addr].leaves;\r\n\t}\r\n\t\r\n\tfunction applyLeave(uint no_days) public{\r\n\t     require(no_days > 0);\r\n\t     if(leaveBalance[msg.sender].id == 0) revert();\r\n\t     require(leaveBalance[msg.sender].leaves > no_days);\r\n\t     \r\n\t     uint id = leaveBalance[msg.sender].id;\r\n\t     Leave memory leave = Leave(id,no_days, false, msg.sender,0,address(0));\r\n\t     leaves.push(leave);\r\n\t     LeaveApplied(msg.sender,no_days);\r\n\t}\r\n\t\r\n\tfunction getLeaveList() public constant returns (uint[]) {\r\n\t    //maximum restriction of 80 leaves\r\n\t    uint[] memory indexs = new uint[](80);\r\n\t    uint j = 0;\r\n\t    for(uint i=0;i<leaves.length;i++){\r\n\t        if(leaves[i].by == msg.sender){\r\n\t            indexs[j] = i;\r\n\t            j++;\r\n\t        }\r\n\t    }\r\n\t    return indexs;\r\n\t}\r\n\tfunction getEmployeePendingLeaveList() public isOwner constant returns (uint[]){\r\n\t    //maximum restriction of 80 leaves\r\n\t    uint[] memory indexs = new uint[](80);\r\n\t    uint j = 0;\r\n\t    for(uint i=0;i<leaves.length;i++){\r\n\t        if(leaves[i].action_by == address(0)){\r\n\t            indexs[j] = i;\r\n\t            j++;\r\n\t        }\r\n\t    }\r\n\t    return indexs;\r\n\t}\r\n\t\r\n\tfunction getLeaveDetail(uint index) public constant returns (uint, uint, bool, address, uint, address){\r\n        Leave memory _leave = leaves[index];\r\n        if(_leave.by == msg.sender || msg.sender == owner){\r\n            return (_leave.id, _leave.no_days, _leave.approved, _leave.by, _leave.action_at, _leave.action_by);\r\n        }else{\r\n            revert();\r\n        }\r\n\t}\r\n\t\r\n\tfunction approveLeave(uint leave_index) public isOwner{\r\n\t    Leave memory leave = leaves[leave_index];\r\n\t    require(leaveBalance[leave.by].leaves > leave.no_days);\r\n\t    leaveBalance[leave.by].leaves = leaveBalance[leave.by].leaves - leave.no_days;\r\n\t    leave.approved = true;\r\n\t    leave.action_by = msg.sender;\r\n\t    leave.action_at = now;\r\n\t    leaves[leave_index] = leave;\r\n\t    //delete leaves[leave_index];\r\n\t    // if we don't delete the leaves it will keep on charging more gas.\r\n\t    // https://ethereum.stackexchange.com/questions/872/what-is-the-cost-to-store-1kb-10kb-100kb-worth-of-data-into-the-ethereum-block\r\n\t    // so need a better solution\r\n\t    // but we need to keep all leave history as well.\r\n\t    LeaveApproved(leave_index);\r\n\t}\r\n\t\r\n\tfunction disallowLeave(uint leave_index) public isOwner{\r\n\t    Leave memory leave = leaves[leave_index];\r\n\t    leave.approved = false;\r\n\t    leave.action_by = msg.sender;\r\n\t    leave.action_at = now;\r\n\t    leaves[leave_index] = leave;\r\n\t    LeaveDisallowed(leave_index);\r\n\t}\r\n\t\r\n\t//employee earn leaves every month\r\n\tfunction addEmployeeLeave(address employee, uint monthly_leaves) public isOwner {\r\n\t    leaveBalance[employee].leaves += monthly_leaves;\r\n\t}\r\n}",
  "sourcePath": "C:\\Users\\etech\\Desktop\\web3js\\leave-system-solidity-truffle\\contracts\\LeaveSystem.sol",
  "compiler": {
    "name": "solc",
    "version": "0.4.19+commit.c4cbbb05.Emscripten.clang"
  },
  "schemaVersion": "2.0.0",
  "updatedAt": "2018-04-02T09:16:26.960Z"
}