{
  "contractName": "LeaveSystemTokenized",
  "abi": [
    {
      "inputs": [],
      "payable": false,
      "stateMutability": "nonpayable",
      "type": "constructor"
    },
    {
      "anonymous": false,
      "inputs": [
        {
          "indexed": false,
          "name": "user",
          "type": "address"
        }
      ],
      "name": "UserJoined",
      "type": "event"
    },
    {
      "anonymous": false,
      "inputs": [
        {
          "indexed": false,
          "name": "user",
          "type": "address"
        },
        {
          "indexed": false,
          "name": "leaves",
          "type": "uint256"
        }
      ],
      "name": "LeaveApplied",
      "type": "event"
    },
    {
      "anonymous": false,
      "inputs": [
        {
          "indexed": false,
          "name": "leave_index",
          "type": "uint256"
        }
      ],
      "name": "LeaveApproved",
      "type": "event"
    },
    {
      "anonymous": false,
      "inputs": [
        {
          "indexed": false,
          "name": "leave_index",
          "type": "uint256"
        }
      ],
      "name": "LeaveDisallowed",
      "type": "event"
    },
    {
      "constant": false,
      "inputs": [
        {
          "name": "userId",
          "type": "uint256"
        }
      ],
      "name": "joinUser",
      "outputs": [],
      "payable": false,
      "stateMutability": "nonpayable",
      "type": "function"
    },
    {
      "constant": false,
      "inputs": [
        {
          "name": "addr",
          "type": "address"
        },
        {
          "name": "userId",
          "type": "uint256"
        }
      ],
      "name": "addUser",
      "outputs": [],
      "payable": false,
      "stateMutability": "nonpayable",
      "type": "function"
    },
    {
      "constant": true,
      "inputs": [],
      "name": "getUser",
      "outputs": [
        {
          "name": "",
          "type": "uint256"
        }
      ],
      "payable": false,
      "stateMutability": "view",
      "type": "function"
    },
    {
      "constant": true,
      "inputs": [],
      "name": "getMyLeaves",
      "outputs": [
        {
          "name": "",
          "type": "uint256"
        }
      ],
      "payable": false,
      "stateMutability": "view",
      "type": "function"
    },
    {
      "constant": true,
      "inputs": [
        {
          "name": "addr",
          "type": "address"
        }
      ],
      "name": "getUserId",
      "outputs": [
        {
          "name": "",
          "type": "uint256"
        }
      ],
      "payable": false,
      "stateMutability": "view",
      "type": "function"
    },
    {
      "constant": true,
      "inputs": [
        {
          "name": "addr",
          "type": "address"
        }
      ],
      "name": "getLeaves",
      "outputs": [
        {
          "name": "",
          "type": "uint256"
        }
      ],
      "payable": false,
      "stateMutability": "view",
      "type": "function"
    },
    {
      "constant": false,
      "inputs": [
        {
          "name": "no_days",
          "type": "uint256"
        }
      ],
      "name": "applyLeave",
      "outputs": [],
      "payable": false,
      "stateMutability": "nonpayable",
      "type": "function"
    },
    {
      "constant": false,
      "inputs": [
        {
          "name": "leave_index",
          "type": "uint256"
        }
      ],
      "name": "approveLeave",
      "outputs": [],
      "payable": false,
      "stateMutability": "nonpayable",
      "type": "function"
    },
    {
      "constant": false,
      "inputs": [
        {
          "name": "leave_index",
          "type": "uint256"
        }
      ],
      "name": "disallowLeave",
      "outputs": [],
      "payable": false,
      "stateMutability": "nonpayable",
      "type": "function"
    },
    {
      "constant": true,
      "inputs": [],
      "name": "getLeaveList",
      "outputs": [
        {
          "name": "",
          "type": "uint256[]"
        }
      ],
      "payable": false,
      "stateMutability": "view",
      "type": "function"
    },
    {
      "constant": true,
      "inputs": [],
      "name": "getEmployeeApprovedLeaveList",
      "outputs": [
        {
          "name": "",
          "type": "uint256[]"
        }
      ],
      "payable": false,
      "stateMutability": "view",
      "type": "function"
    },
    {
      "constant": true,
      "inputs": [],
      "name": "getEmployeePendingLeaveList",
      "outputs": [
        {
          "name": "",
          "type": "uint256[]"
        }
      ],
      "payable": false,
      "stateMutability": "view",
      "type": "function"
    },
    {
      "constant": true,
      "inputs": [
        {
          "name": "index",
          "type": "uint256"
        }
      ],
      "name": "getLeaveDetail",
      "outputs": [
        {
          "name": "",
          "type": "uint256"
        },
        {
          "name": "",
          "type": "uint256"
        },
        {
          "name": "",
          "type": "bool"
        },
        {
          "name": "",
          "type": "address"
        },
        {
          "name": "",
          "type": "uint256"
        },
        {
          "name": "",
          "type": "address"
        }
      ],
      "payable": false,
      "stateMutability": "view",
      "type": "function"
    },
    {
      "constant": false,
      "inputs": [
        {
          "name": "employee",
          "type": "address"
        },
        {
          "name": "monthly_leaves",
          "type": "uint256"
        }
      ],
      "name": "addEmployeeLeave",
      "outputs": [],
      "payable": false,
      "stateMutability": "nonpayable",
      "type": "function"
    },
    {
      "constant": true,
      "inputs": [],
      "name": "tokensAvailable",
      "outputs": [
        {
          "name": "",
          "type": "uint256"
        }
      ],
      "payable": false,
      "stateMutability": "view",
      "type": "function"
    },
    {
      "constant": false,
      "inputs": [],
      "name": "destroy",
      "outputs": [],
      "payable": false,
      "stateMutability": "nonpayable",
      "type": "function"
    }
  ],
  "bytecode": "0x608060405234801561001057600080fd5b5060008054600160a060020a033316600160a060020a03199182161790915560038054909116738bc0978b628c93c86ae79e53017b30363fe818401790556112e58061005d6000396000f3006080604052600436106100e55763ffffffff7c01000000000000000000000000000000000000000000000000000000006000350416630974858581146100ea5780630c32c55c1461014f57806322dee2e9146101755780632b956ff71461018a5780633b4d2e8d146101bd57806360659a92146101d557806366b45eed146101ea57806383197ef01461020b578063832880e714610220578063a39bc1ae14610235578063a6be04eb1461024d578063c2f4a4b814610262578063d30171931461027a578063d908e8151461029e578063eac949e9146102b6578063fe4c1b241461030a575b600080fd5b3480156100f657600080fd5b506100ff61031f565b60408051602080825283518183015283519192839290830191858101910280838360005b8381101561013b578181015183820152602001610123565b505050509050019250505060405180910390f35b34801561015b57600080fd5b50610173600160a060020a03600435166024356103d6565b005b34801561018157600080fd5b506100ff6104a4565b34801561019657600080fd5b506101ab600160a060020a0360043516610550565b60408051918252519081900360200190f35b3480156101c957600080fd5b50610173600435610588565b3480156101e157600080fd5b506101ab610621565b3480156101f657600080fd5b506101ab600160a060020a03600435166106bd565b34801561021757600080fd5b50610173610776565b34801561022c57600080fd5b506101ab610859565b34801561024157600080fd5b50610173600435610875565b34801561025957600080fd5b506101ab610aaa565b34801561026e57600080fd5b50610173600435610b6a565b34801561028657600080fd5b50610173600160a060020a0360043516602435610dab565b3480156102aa57600080fd5b50610173600435610e3d565b3480156102c257600080fd5b506102ce6004356110e4565b60408051968752602087019590955292151585850152600160a060020a03918216606086015260808501521660a0830152519081900360c00190f35b34801561031657600080fd5b506100ff6111c4565b600080546060918291819033600160a060020a0390811691161461034257600080fd5b604080516050808252610a2082019092529060208201610a008038833901905050925060009150600090505b6002548110156103ce57600280548290811061038657fe5b600091825260209091206002600590920201015460ff1615156103c6578060010183838151811015156103b557fe5b602090810290910101526001909101905b60010161036e565b509092915050565b60005433600160a060020a039081169116146103f157600080fd5b600354604080517fa9059cbb000000000000000000000000000000000000000000000000000000008152600160a060020a038581166004830152670de0b6b3a7640000850260248301529151919092169163a9059cbb9160448083019260209291908290030181600087803b15801561046957600080fd5b505af115801561047d573d6000803e3d6000fd5b505050506040513d602081101561049357600080fd5b505115156104a057600080fd5b5050565b604080516050808252610a208201909252606091829160009182919060208201610a008038833901905050925060009150600090505b6002548110156103ce5733600160a060020a03166002828154811015156104fd57fe5b60009182526020909120600590910201600201546101009004600160a060020a031614156105485780600101838381518110151561053757fe5b602090810290910101526001909101905b6001016104da565b6000805433600160a060020a0390811691161461056c57600080fd5b50600160a060020a031660009081526001602052604090205490565b610590611272565b6000821161059d57600080fd5b600160a060020a033316600090815260016020526040902054156105c057600080fd5b506040805160208181018352838252600160a060020a033316600081815260018352849020835190558351908152925191927f4028b92b6812cf0ad64ad14283561bd81eaf1d9e718a6eabcfd40016f83bd1e9929081900390910190a15050565b600354604080517f70a08231000000000000000000000000000000000000000000000000000000008152600160a060020a033081166004830152915160009392909216916370a082319160248082019260209290919082900301818787803b15801561068c57600080fd5b505af11580156106a0573d6000803e3d6000fd5b505050506040513d60208110156106b657600080fd5b5051905090565b60008054819033600160a060020a039081169116146106db57600080fd5b600354604080517f70a08231000000000000000000000000000000000000000000000000000000008152600160a060020a038681166004830152915191909216916370a082319160248083019260209291908290030181600087803b15801561074357600080fd5b505af1158015610757573d6000803e3d6000fd5b505050506040513d602081101561076d57600080fd5b50519392505050565b6000805433600160a060020a0390811691161461079257600080fd5b61079a610621565b9050600081116107a957600080fd5b60035460008054604080517fa9059cbb000000000000000000000000000000000000000000000000000000008152600160a060020a039283166004820152602481018690529051919093169263a9059cbb9260448083019360209390929083900390910190829087803b15801561081f57600080fd5b505af1158015610833573d6000803e3d6000fd5b505050506040513d602081101561084957600080fd5b5050600054600160a060020a0316ff5b600160a060020a03331660009081526001602052604090205490565b61087d611284565b60005433600160a060020a0390811691161461089857600080fd5b60028054839081106108a657fe5b600091825260208083206040805160c0810182526005909402909101805484526001810154848401819052600282015460ff8116151586850152600160a060020a036101009091048116606087018190526003808501546080890152600494850154831660a08901525485517f23b872dd00000000000000000000000000000000000000000000000000000000815294850191909152308216602485015260448401929092529251949650909116936323b872dd93606480840194939192918390030190829087803b15801561097b57600080fd5b505af115801561098f573d6000803e3d6000fd5b505050506040513d60208110156109a557600080fd5b505060016040820152600160a060020a03331660a082015242608082015260028054829190849081106109d457fe5b6000918252602091829020835160059290920201908155828201516001820155604080840151600283018054606087015160ff199091169215159290921774ffffffffffffffffffffffffffffffffffffffff001916610100600160a060020a03938416021790556080850151600384015560a0909401516004909201805473ffffffffffffffffffffffffffffffffffffffff19169290941691909117909255815184815291517f6527aed85d4bdb1699f360f8e892c09647c21c6f0d916171145095a2b0f99e379281900390910190a15050565b600160a060020a03331660009081526001602052604081205481901515610ad057600080fd5b600354604080517f70a08231000000000000000000000000000000000000000000000000000000008152600160a060020a033381166004830152915191909216916370a082319160248083019260209291908290030181600087803b158015610b3857600080fd5b505af1158015610b4c573d6000803e3d6000fd5b505050506040513d6020811015610b6257600080fd5b505192915050565b610b72611284565b60005433600160a060020a03908116911614610b8d57600080fd5b6002805483908110610b9b57fe5b600091825260208083206040805160c0810182526005909402909101805484526001810154848401819052600282015460ff8116151586850152600160a060020a036101009091048116606087018190526003808501546080890152600494850154831660a08901525485517fa9059cbb00000000000000000000000000000000000000000000000000000000815294850191909152670de0b6b3a7640000909202602484015292519496509091169363a9059cbb93604480840194939192918390030190829087803b158015610c7157600080fd5b505af1158015610c85573d6000803e3d6000fd5b505050506040513d6020811015610c9b57600080fd5b50511515610ca857600080fd5b60006040820152600160a060020a03331660a08201524260808201526002805482919084908110610cd557fe5b6000918252602091829020835160059290920201908155828201516001820155604080840151600283018054606087015160ff199091169215159290921774ffffffffffffffffffffffffffffffffffffffff001916610100600160a060020a03938416021790556080850151600384015560a0909401516004909201805473ffffffffffffffffffffffffffffffffffffffff19169290941691909117909255815184815291517f8ccc4e72d664fa5c7a52e2d8e0c075715e11bde86ce9840f2a92b01cf90951a49281900390910190a15050565b610db3611272565b60005433600160a060020a03908116911614610dce57600080fd5b60008211610ddb57600080fd5b506040805160208181018352838252600160a060020a038516600081815260018352849020835190558351908152925191927f4028b92b6812cf0ad64ad14283561bd81eaf1d9e718a6eabcfd40016f83bd1e9929081900390910190a1505050565b600080610e48611284565b600160a060020a0333166000908152600160205260409020541515610e6c57600080fd5b60008411610e7957600080fd5b600354604080517fdd62ed3e000000000000000000000000000000000000000000000000000000008152600160a060020a03338116600483015230811660248301529151919092169163dd62ed3e9160448083019260209291908290030181600087803b158015610ee957600080fd5b505af1158015610efd573d6000803e3d6000fd5b505050506040513d6020811015610f1357600080fd5b50519250670de0b6b3a76400008402831015610f2e57600080fd5b505033600160a060020a03908116600081815260016020818152604080842054815160c0810183528181528084018a8152818401878152606083018981526080840189815260a085018a8152600280549a8b018155909a5284517f405787fa12a823e0f2b7631cc41b3ba8828b3321ca811111fa75cd3aa3bb5ace6005909a02998a015592517f405787fa12a823e0f2b7631cc41b3ba8828b3321ca811111fa75cd3aa3bb5acf89015590517f405787fa12a823e0f2b7631cc41b3ba8828b3321ca811111fa75cd3aa3bb5ad088018054925160ff199093169115159190911774ffffffffffffffffffffffffffffffffffffffff001916610100928c1692909202919091179055517f405787fa12a823e0f2b7631cc41b3ba8828b3321ca811111fa75cd3aa3bb5ad186015594517f405787fa12a823e0f2b7631cc41b3ba8828b3321ca811111fa75cd3aa3bb5ad2909401805473ffffffffffffffffffffffffffffffffffffffff19169490971693909317909555845193845283018690528351909391927f5b1c7e0d74c949689e7dda74fc61f454bbf5895102bb71b95a7af806102cf0cb92908290030190a150505050565b6000806000806000806110f5611284565b600280548990811061110357fe5b60009182526020918290206040805160c081018252600590930290910180548352600181015493830193909352600283015460ff8116151591830191909152600160a060020a0361010090910481166060830181905260038401546080840152600490930154811660a08301529092503316148061118f575060005433600160a060020a039081169116145b156100e5578051602082015160408301516060840151608085015160a090950151939c929b5090995097509195509350915050565b600080546060918291819033600160a060020a039081169116146111e757600080fd5b604080516050808252610a2082019092529060208201610a008038833901905050925060009150600090505b6002548110156103ce57600280548290811061122b57fe5b600091825260209091206002600590920201015460ff161561126a5780600101838381518110151561125957fe5b602090810290910101526001909101905b600101611213565b60408051602081019091526000815290565b6040805160c081018252600080825260208201819052918101829052606081018290526080810182905260a0810191909152905600a165627a7a723058209d855bae19d48366a31ff13cb5e1a9757d3c49e642777569b4628979290ba12a0029",
  "source": "//leave management contract with ETECH Tokens\r\n\r\nimport './erc20.sol';\r\n\r\npragma solidity ^0.4.19;\r\n\r\ncontract LeaveSystemTokenized {\r\n    //data type of employee\r\n\tstruct Employee {\r\n\t    uint id; // id of employee from database\r\n\t}\r\n\t\r\n\tstruct Leave {\r\n\t    uint id;  //actual id of leave from database\r\n\t    uint no_days;  //number of days for which leave is applied\r\n\t    bool approved; // if leave is approved or not \r\n\t    address by; // person who applied the leave\r\n\t    uint action_at; // at what time was leave approved/disallowed \r\n\t    address action_by; // who approved/disallowed leave\r\n\t}\r\n\t\r\n\t//owner of the contract \r\n\taddress owner;\r\n\t\r\n\t//maintain a leave balance\r\n\tmapping (address => Employee) private employees;\r\n    \r\n    Leave[] private leaves;\r\n\t\r\n\tmodifier isOwner { require(msg.sender == owner); _; }\r\n\r\n    modifier isEmployee { require(employees[msg.sender].id != 0); _; }\r\n    \r\n    ERC20Interface token;\r\n\r\n\t//constructor\r\n\tconstructor() public {\r\n\t    owner = msg.sender;\r\n        address _tokenAddr = 0x8bc0978B628C93c86aE79e53017b30363FE81840; //ETECH smartcontract address\r\n        token = ERC20Interface(_tokenAddr);\r\n\t}\r\n\t\r\n\t//event to notify when a new user has joined\r\n    event UserJoined(address user);\r\n\tevent LeaveApplied(address user, uint leaves);\r\n\tevent LeaveApproved(uint leave_index);\r\n\tevent LeaveDisallowed(uint leave_index);\r\n\t\r\n\t//function to add user to contract\r\n\tfunction joinUser(uint userId) public {\r\n\t    require(userId > 0);  //actual database user id from hr system\r\n\t    if(employees[msg.sender].id != 0) revert(); //revert if user already exists\r\n\t    \r\n\t    Employee memory user = Employee(userId);\r\n\t    employees[msg.sender] = user;\r\n\t    \r\n\t    emit UserJoined(msg.sender);\r\n\t}\r\n    \r\n    function addUser(address addr, uint userId) public isOwner {\r\n        \r\n        require(userId > 0);  //actual database user id from hr system\r\n\t    \r\n\t    Employee memory user = Employee(userId);\r\n\t    employees[addr] = user;\r\n\t    \r\n\t    emit UserJoined(addr);\r\n    }\r\n    \r\n    function getUser() public constant returns (uint){\r\n\t\treturn employees[msg.sender].id;\r\n\t}\r\n\r\n\tfunction getMyLeaves() public isEmployee constant returns (uint) {\r\n\t\tuint balance = token.balanceOf(msg.sender);\r\n\t\treturn balance;\r\n\t}  \r\n    \r\n\tfunction getUserId(address addr) public isOwner constant returns (uint){\r\n\t\treturn employees[addr].id;\r\n\t}\r\n\r\n\tfunction getLeaves(address addr) public isOwner constant returns (uint) {\r\n\t\tuint balance = token.balanceOf(addr);\r\n\t\treturn balance;\r\n\t}   \r\n\t\r\n\tfunction applyLeave(uint no_days) public isEmployee {\r\n\t     require(no_days > 0);\r\n\t     \r\n         uint allowance = token.allowance(msg.sender,this);\r\n\r\n\t     require(allowance >= no_days * 10 ** 18);\r\n\t     \r\n\t     \r\n\t     uint id = employees[msg.sender].id;\r\n\t     Leave memory leave = Leave(id,no_days, false, msg.sender,0,address(0));\r\n\t     leaves.push(leave);\r\n\t     emit LeaveApplied(msg.sender,no_days);\r\n\t}\r\n\t\r\n\tfunction approveLeave(uint leave_index) public isOwner{\r\n\t    \r\n\t    \r\n\t    Leave memory leave = leaves[leave_index];\r\n\t    \r\n\t    token.transferFrom(leave.by, this, leave.no_days);\r\n\t    \r\n\t    leave.approved = true;\r\n\t    leave.action_by = msg.sender;\r\n\t    leave.action_at = now;\r\n\t    leaves[leave_index] = leave;\r\n\t    //delete leaves[leave_index];\r\n\t    // if we don't delete the leaves it will keep on charging more gas.\r\n\t    // https://ethereum.stackexchange.com/questions/872/what-is-the-cost-to-store-1kb-10kb-100kb-worth-of-data-into-the-ethereum-block\r\n\t    // so need a better solution\r\n\t    // but we need to keep all leave history as well.\r\n\t    emit LeaveApproved(leave_index);\r\n\t}\r\n\t\r\n\tfunction disallowLeave(uint leave_index) public isOwner{\r\n\r\n        \r\n\r\n\t    Leave memory leave = leaves[leave_index];\r\n\r\n        require(token.transfer(leave.by, leave.no_days * 10 ** 18));\r\n\r\n\t    leave.approved = false;\r\n\t    leave.action_by = msg.sender;\r\n\t    leave.action_at = now;\r\n\t    leaves[leave_index] = leave;\r\n\t    emit LeaveDisallowed(leave_index);\r\n\t}\r\n\t\r\n\tfunction getLeaveList() public constant returns (uint[]) {\r\n\t    //maximum restriction of 80 leaves\r\n\t    uint[] memory indexs = new uint[](80);\r\n\t    uint j = 0;\r\n\t    for( uint i = 0 ; i < leaves.length ; i++ ){\r\n\t        if(leaves[i].by == msg.sender){\r\n\t            indexs[j] = i+1;\r\n\t            j++;\r\n\t        }\r\n\t    }\r\n\t    return indexs;\r\n\t}\r\n\t\r\n\tfunction getEmployeeApprovedLeaveList() public isOwner constant returns (uint[]){\r\n\t    //maximum restriction of 80 leaves\r\n\t    uint[] memory indexs = new uint[](80);\r\n\t    uint j = 0;\r\n\t    for( uint i = 0 ; i < leaves.length ; i++ ){\r\n\t        if(leaves[i].approved){\r\n\t            indexs[j] = i+1;\r\n\t            j++;\r\n\t        }\r\n\t    }\r\n\t    return indexs;\r\n\t}\r\n\t\r\n\tfunction getEmployeePendingLeaveList() public isOwner constant returns (uint[]){\r\n\t    //maximum restriction of 80 leaves\r\n\t    uint[] memory indexs = new uint[](80);\r\n\t    uint j = 0;\r\n\t    for( uint i = 0 ; i < leaves.length ; i++ ){\r\n\t        if(!leaves[i].approved){\r\n\t            indexs[j] = i+1;\r\n\t            j++;\r\n\t        }\r\n\t    }\r\n\t    return indexs;\r\n\t}\r\n\t\r\n\tfunction getLeaveDetail(uint index) public constant returns (uint, uint, bool, address, uint, address){\r\n        Leave memory _leave = leaves[index];\r\n        if(_leave.by == msg.sender || msg.sender == owner){\r\n            return (_leave.id, _leave.no_days, _leave.approved, _leave.by, _leave.action_at, _leave.action_by);\r\n        }else{\r\n            revert();\r\n        }\r\n\t}\r\n\t\r\n\t\r\n\t\r\n\t//employee earn leaves every month\r\n\tfunction addEmployeeLeave(address employee, uint monthly_leaves) public isOwner {\r\n\t    \r\n\t    //this will not work because msg.sender will be seen as the contract \r\n\t    //rather than actual person doing the transaction.\r\n\t    //so either this contract should have tokens or it will assume contract having 0 tokens\r\n\t    // https://ethereum.stackexchange.com/questions/28328/unable-to-call-token-contract-function-from-another-contract\r\n        require(token.transfer(employee, monthly_leaves * 10 ** 18));\r\n\t}\r\n\t\r\n\tfunction tokensAvailable() public constant returns (uint256) {\r\n        return token.balanceOf(this);\r\n    }\r\n\tfunction destroy() isOwner public{\r\n        uint256 balance = tokensAvailable();\r\n        require (balance > 0);\r\n        token.transfer(owner, balance);\r\n        selfdestruct(owner);\r\n      }\r\n}",
  "sourcePath": "/mnt/c/work/leave-system/leave-system-solidity-truffle/contracts/LeaveSystemTokenized.sol",
  "compiler": {
    "name": "solc",
    "version": "0.4.23+commit.124ca40d.Emscripten.clang"
  },
  "schemaVersion": "2.0.0",
  "updatedAt": "2018-05-20T16:45:18.227Z"
}