{
  "contractName": "LeaveSystem",
  "abi": [
    {
      "inputs": [],
      "payable": false,
      "stateMutability": "nonpayable",
      "type": "constructor"
    },
    {
      "anonymous": false,
      "inputs": [
        {
          "indexed": false,
          "name": "user",
          "type": "address"
        }
      ],
      "name": "UserJoined",
      "type": "event"
    },
    {
      "anonymous": false,
      "inputs": [
        {
          "indexed": false,
          "name": "user",
          "type": "address"
        },
        {
          "indexed": false,
          "name": "leaves",
          "type": "uint256"
        }
      ],
      "name": "LeaveApplied",
      "type": "event"
    },
    {
      "anonymous": false,
      "inputs": [
        {
          "indexed": false,
          "name": "leave_index",
          "type": "uint256"
        }
      ],
      "name": "LeaveApproved",
      "type": "event"
    },
    {
      "anonymous": false,
      "inputs": [
        {
          "indexed": false,
          "name": "leave_index",
          "type": "uint256"
        }
      ],
      "name": "LeaveDisallowed",
      "type": "event"
    },
    {
      "constant": false,
      "inputs": [
        {
          "name": "userId",
          "type": "uint256"
        },
        {
          "name": "leave_balance",
          "type": "uint256"
        }
      ],
      "name": "joinUser",
      "outputs": [],
      "payable": false,
      "stateMutability": "nonpayable",
      "type": "function"
    },
    {
      "constant": true,
      "inputs": [
        {
          "name": "addr",
          "type": "address"
        }
      ],
      "name": "getUser",
      "outputs": [
        {
          "name": "",
          "type": "uint256"
        }
      ],
      "payable": false,
      "stateMutability": "view",
      "type": "function"
    },
    {
      "constant": true,
      "inputs": [
        {
          "name": "addr",
          "type": "address"
        }
      ],
      "name": "getMyLeaves",
      "outputs": [
        {
          "name": "",
          "type": "uint256"
        }
      ],
      "payable": false,
      "stateMutability": "view",
      "type": "function"
    },
    {
      "constant": false,
      "inputs": [
        {
          "name": "addr",
          "type": "address"
        }
      ],
      "name": "resetLeaves",
      "outputs": [],
      "payable": false,
      "stateMutability": "nonpayable",
      "type": "function"
    },
    {
      "constant": false,
      "inputs": [
        {
          "name": "no_days",
          "type": "uint256"
        }
      ],
      "name": "applyLeave",
      "outputs": [],
      "payable": false,
      "stateMutability": "nonpayable",
      "type": "function"
    },
    {
      "constant": true,
      "inputs": [],
      "name": "getLeaveList",
      "outputs": [
        {
          "name": "",
          "type": "uint256[]"
        }
      ],
      "payable": false,
      "stateMutability": "view",
      "type": "function"
    },
    {
      "constant": true,
      "inputs": [],
      "name": "getEmployeeApprovedLeaveList",
      "outputs": [
        {
          "name": "",
          "type": "uint256[]"
        }
      ],
      "payable": false,
      "stateMutability": "view",
      "type": "function"
    },
    {
      "constant": true,
      "inputs": [],
      "name": "getEmployeePendingLeaveList",
      "outputs": [
        {
          "name": "",
          "type": "uint256[]"
        }
      ],
      "payable": false,
      "stateMutability": "view",
      "type": "function"
    },
    {
      "constant": true,
      "inputs": [
        {
          "name": "index",
          "type": "uint256"
        }
      ],
      "name": "getLeaveDetail",
      "outputs": [
        {
          "name": "",
          "type": "uint256"
        },
        {
          "name": "",
          "type": "uint256"
        },
        {
          "name": "",
          "type": "bool"
        },
        {
          "name": "",
          "type": "address"
        },
        {
          "name": "",
          "type": "uint256"
        },
        {
          "name": "",
          "type": "address"
        }
      ],
      "payable": false,
      "stateMutability": "view",
      "type": "function"
    },
    {
      "constant": false,
      "inputs": [
        {
          "name": "leave_index",
          "type": "uint256"
        }
      ],
      "name": "approveLeave",
      "outputs": [],
      "payable": false,
      "stateMutability": "nonpayable",
      "type": "function"
    },
    {
      "constant": false,
      "inputs": [
        {
          "name": "leave_index",
          "type": "uint256"
        }
      ],
      "name": "disallowLeave",
      "outputs": [],
      "payable": false,
      "stateMutability": "nonpayable",
      "type": "function"
    },
    {
      "constant": false,
      "inputs": [
        {
          "name": "employee",
          "type": "address"
        },
        {
          "name": "monthly_leaves",
          "type": "uint256"
        }
      ],
      "name": "addEmployeeLeave",
      "outputs": [],
      "payable": false,
      "stateMutability": "nonpayable",
      "type": "function"
    }
  ],
  "bytecode": "0x608060405234801561001057600080fd5b5060008054600160a060020a033316600160a060020a0319909116179055610cea8061003d6000396000f3006080604052600436106100b95763ffffffff7c01000000000000000000000000000000000000000000000000000000006000350416630974858581146100be5780630c32c55c1461012357806322dee2e9146101495780632bcce18f1461015e5780636c492ce3146101795780636f77926b1461019a57806397e7ab7c146101cd578063a39bc1ae146101ee578063c2f4a4b814610206578063d908e8151461021e578063eac949e914610236578063fe4c1b241461028a575b600080fd5b3480156100ca57600080fd5b506100d361029f565b60408051602080825283518183015283519192839290830191858101910280838360005b8381101561010f5781810151838201526020016100f7565b505050509050019250505060405180910390f35b34801561012f57600080fd5b50610147600160a060020a0360043516602435610356565b005b34801561015557600080fd5b506100d3610397565b34801561016a57600080fd5b50610147600435602435610443565b34801561018557600080fd5b50610147600160a060020a03600435166104fa565b3480156101a657600080fd5b506101bb600160a060020a0360043516610532565b60408051918252519081900360200190f35b3480156101d957600080fd5b506101bb600160a060020a036004351661054d565b3480156101fa57600080fd5b5061014760043561056c565b34801561021257600080fd5b50610147600435610756565b34801561022a57600080fd5b506101476004356108cc565b34801561024257600080fd5b5061024e600435610ae4565b60408051968752602087019590955292151585850152600160a060020a03918216606086015260808501521660a0830152519081900360c00190f35b34801561029657600080fd5b506100d3610bc4565b600080546060918291819033600160a060020a039081169116146102c257600080fd5b604080516050808252610a2082019092529060208201610a008038833901905050925060009150600090505b60025481101561034e57600280548290811061030657fe5b600091825260209091206002600590920201015460ff1615156103465780600101838381518110151561033557fe5b602090810290910101526001909101905b6001016102ee565b509092915050565b60005433600160a060020a0390811691161461037157600080fd5b600160a060020a0390911660009081526001602081905260409091200180549091019055565b604080516050808252610a208201909252606091829160009182919060208201610a008038833901905050925060009150600090505b60025481101561034e5733600160a060020a03166002828154811015156103f057fe5b60009182526020909120600590910201600201546101009004600160a060020a0316141561043b5780600101838381518110151561042a57fe5b602090810290910101526001909101905b6001016103cd565b61044b610c72565b6000831161045857600080fd5b6000821161046557600080fd5b600160a060020a0333166000908152600160205260409020541561048857600080fd5b506040805180820182528381526020808201848152600160a060020a03331660008181526001808552908690208551815592519201919091558351908152925191927f4028b92b6812cf0ad64ad14283561bd81eaf1d9e718a6eabcfd40016f83bd1e9929081900390910190a1505050565b60005433600160a060020a0390811691161461051557600080fd5b600160a060020a0316600090815260016020819052604082200155565b600160a060020a031660009081526001602052604090205490565b600160a060020a03166000908152600160208190526040909120015490565b610574610c89565b60005433600160a060020a0390811691161461058f57600080fd5b600280548390811061059d57fe5b600091825260208083206040805160c081018252600590940290910180548452600180820154858501819052600283015460ff8116151587860152600160a060020a03610100909104811660608801819052600385015460808901526004909401541660a087015291865292839052932001549092501161061d57600080fd5b602080820151606083018051600160a060020a0390811660009081526001948590526040808220860154935183168252908190209390920392840192909255830191909152331660a0820152426080820152600280548291908490811061068057fe5b6000918252602091829020835160059290920201908155828201516001820155604080840151600283018054606087015160ff199091169215159290921774ffffffffffffffffffffffffffffffffffffffff001916610100600160a060020a03938416021790556080850151600384015560a0909401516004909201805473ffffffffffffffffffffffffffffffffffffffff19169290941691909117909255815184815291517f6527aed85d4bdb1699f360f8e892c09647c21c6f0d916171145095a2b0f99e379281900390910190a15050565b61075e610c89565b60005433600160a060020a0390811691161461077957600080fd5b600280548390811061078757fe5b600091825260208083206040805160c081018252600590940290910180548452600181015492840192909252600291820154600160a060020a0361010090910481166060850152908301939093523390921660a08201524260808201528154909250829190849081106107f657fe5b6000918252602091829020835160059290920201908155828201516001820155604080840151600283018054606087015160ff199091169215159290921774ffffffffffffffffffffffffffffffffffffffff001916610100600160a060020a03938416021790556080850151600384015560a0909401516004909201805473ffffffffffffffffffffffffffffffffffffffff19169290941691909117909255815184815291517f8ccc4e72d664fa5c7a52e2d8e0c075715e11bde86ce9840f2a92b01cf90951a49281900390910190a15050565b60006108d6610c89565b600083116108e357600080fd5b600160a060020a033316600090815260016020526040902054151561090757600080fd5b600160a060020a03331660009081526001602081905260409091200154831061092f57600080fd5b505033600160a060020a03908116600081815260016020818152604080842054815160c081018352818152808401898152818401878152606083018981526080840189815260a085018a8152600280549a8b018155909a5284517f405787fa12a823e0f2b7631cc41b3ba8828b3321ca811111fa75cd3aa3bb5ace6005909a02998a015592517f405787fa12a823e0f2b7631cc41b3ba8828b3321ca811111fa75cd3aa3bb5acf89015590517f405787fa12a823e0f2b7631cc41b3ba8828b3321ca811111fa75cd3aa3bb5ad088018054925160ff199093169115159190911774ffffffffffffffffffffffffffffffffffffffff001916610100928c1692909202919091179055517f405787fa12a823e0f2b7631cc41b3ba8828b3321ca811111fa75cd3aa3bb5ad186015594517f405787fa12a823e0f2b7631cc41b3ba8828b3321ca811111fa75cd3aa3bb5ad2909401805473ffffffffffffffffffffffffffffffffffffffff19169490971693909317909555845193845283018590528351909391927f5b1c7e0d74c949689e7dda74fc61f454bbf5895102bb71b95a7af806102cf0cb92908290030190a1505050565b600080600080600080610af5610c89565b6002805489908110610b0357fe5b60009182526020918290206040805160c081018252600590930290910180548352600181015493830193909352600283015460ff8116151591830191909152600160a060020a0361010090910481166060830181905260038401546080840152600490930154811660a083015290925033161480610b8f575060005433600160a060020a039081169116145b156100b9578051602082015160408301516060840151608085015160a090950151939c929b5090995097509195509350915050565b600080546060918291819033600160a060020a03908116911614610be757600080fd5b604080516050808252610a2082019092529060208201610a008038833901905050925060009150600090505b60025481101561034e576002805482908110610c2b57fe5b600091825260209091206002600590920201015460ff1615610c6a57806001018383815181101515610c5957fe5b602090810290910101526001909101905b600101610c13565b604080518082019091526000808252602082015290565b6040805160c081018252600080825260208201819052918101829052606081018290526080810182905260a0810191909152905600a165627a7a723058203e754d19db6df85e9d0a6bb9102d8f241c8ad29d7b2c64b19dae945b431dde4d0029",
  "source": "pragma solidity ^0.4.19;\n\ncontract LeaveSystem {\n    //data type of employee\n\tstruct Employee {\n\t    uint id; // id of employee from database\n\t    uint leaves;  //starting leave balance of employee\n\t}\n\t\n\tstruct Leave {\n\t    uint id;  //actual id of leave from database\n\t    uint no_days;  //number of days for which leave is applied\n\t    bool approved; // if leave is approved or not \n\t    address by; // person who applied the leave\n\t    uint action_at; // at what time was leave approved/disallowed \n\t    address action_by; // who approved/disallowed leave\n\t}\n\t\n\t//owner of the contract \n\taddress owner;\n\t\n\t//maintain a leave balance\n\tmapping (address => Employee) private leaveBalance;\n    \n    Leave[] private leaves;\n\t\n\tmodifier isOwner { require(msg.sender == owner); _; }\n\t\n\t//constructor\n\tfunction LeaveSystem() public {\n\t    owner = msg.sender;\n\t}\n\t\n\t//event to notify when a new user has joined\n\tevent UserJoined(address user);\n\tevent LeaveApplied(address user, uint leaves);\n\tevent LeaveApproved(uint leave_index);\n\tevent LeaveDisallowed(uint leave_index);\n\t\n\t//function to add user to contract\n\tfunction joinUser(uint userId, uint leave_balance) public {\n\t    require(userId > 0);  //actual database user id from hr system\n\t    require(leave_balance > 0);  //no leaves user has from hr system\n\t    if(leaveBalance[msg.sender].id != 0) revert(); //revert if user already exists\n\t    \n\t    Employee memory user = Employee(userId, leave_balance);\n\t    leaveBalance[msg.sender] = user;\n\t    \n\t    UserJoined(msg.sender);\n\t}\n\n\t//get user details. this will simply check if user \n\t//exists or not. it will return 0 if user doesn't exist\n\tfunction getUser(address addr) public constant returns (uint){\n\t\treturn leaveBalance[addr].id;\n\t}\n\n\tfunction getMyLeaves(address addr) public constant returns (uint) {\n\t\treturn leaveBalance[addr].leaves;\n\t}\n\t\n\tfunction resetLeaves(address addr) public isOwner {\n\t    delete leaveBalance[addr].leaves;\n\t}\n\t\n\tfunction applyLeave(uint no_days) public{\n\t     require(no_days > 0);\n\t     if(leaveBalance[msg.sender].id == 0) revert();\n\t     require(leaveBalance[msg.sender].leaves > no_days);\n\t     \n\t     uint id = leaveBalance[msg.sender].id;\n\t     Leave memory leave = Leave(id,no_days, false, msg.sender,0,address(0));\n\t     leaves.push(leave);\n\t     LeaveApplied(msg.sender,no_days);\n\t}\n\t\n\tfunction getLeaveList() public constant returns (uint[]) {\n\t    //maximum restriction of 80 leaves\n\t    uint[] memory indexs = new uint[](80);\n\t    uint j = 0;\n\t    for(uint i=0;i<leaves.length;i++){\n\t        if(leaves[i].by == msg.sender){\n\t            indexs[j] = i+1;\n\t            j++;\n\t        }\n\t    }\n\t    return indexs;\n\t}\n\t\n\tfunction getEmployeeApprovedLeaveList() public isOwner constant returns (uint[]){\n\t    //maximum restriction of 80 leaves\n\t    uint[] memory indexs = new uint[](80);\n\t    uint j = 0;\n\t    for(uint i=0;i<leaves.length;i++){\n\t        if(leaves[i].approved){\n\t            indexs[j] = i+1;\n\t            j++;\n\t        }\n\t    }\n\t    return indexs;\n\t}\n\t\n\tfunction getEmployeePendingLeaveList() public isOwner constant returns (uint[]){\n\t    //maximum restriction of 80 leaves\n\t    uint[] memory indexs = new uint[](80);\n\t    uint j = 0;\n\t    for(uint i=0;i<leaves.length;i++){\n\t        if(!leaves[i].approved){\n\t            indexs[j] = i+1;\n\t            j++;\n\t        }\n\t    }\n\t    return indexs;\n\t}\n\t\n\tfunction getLeaveDetail(uint index) public constant returns (uint, uint, bool, address, uint, address){\n        Leave memory _leave = leaves[index];\n        if(_leave.by == msg.sender || msg.sender == owner){\n            return (_leave.id, _leave.no_days, _leave.approved, _leave.by, _leave.action_at, _leave.action_by);\n        }else{\n            revert();\n        }\n\t}\n\t\n\tfunction approveLeave(uint leave_index) public isOwner{\n\t    Leave memory leave = leaves[leave_index];\n\t    require(leaveBalance[leave.by].leaves > leave.no_days);\n\t    leaveBalance[leave.by].leaves = leaveBalance[leave.by].leaves - leave.no_days;\n\t    leave.approved = true;\n\t    leave.action_by = msg.sender;\n\t    leave.action_at = now;\n\t    leaves[leave_index] = leave;\n\t    //delete leaves[leave_index];\n\t    // if we don't delete the leaves it will keep on charging more gas.\n\t    // https://ethereum.stackexchange.com/questions/872/what-is-the-cost-to-store-1kb-10kb-100kb-worth-of-data-into-the-ethereum-block\n\t    // so need a better solution\n\t    // but we need to keep all leave history as well.\n\t    LeaveApproved(leave_index);\n\t}\n\t\n\tfunction disallowLeave(uint leave_index) public isOwner{\n\t    Leave memory leave = leaves[leave_index];\n\t    leave.approved = false;\n\t    leave.action_by = msg.sender;\n\t    leave.action_at = now;\n\t    leaves[leave_index] = leave;\n\t    LeaveDisallowed(leave_index);\n\t}\n\t\n\t//employee earn leaves every month\n\tfunction addEmployeeLeave(address employee, uint monthly_leaves) public isOwner {\n\t    leaveBalance[employee].leaves += monthly_leaves;\n\t}\n}",
  "sourcePath": "/mnt/c/work/leave-system/leave-system-solidity-truffle/contracts/LeaveSystem.sol",
  "compiler": {
    "name": "solc",
    "version": "0.4.23+commit.124ca40d.Emscripten.clang"
  },
  "schemaVersion": "2.0.0",
  "updatedAt": "2018-05-16T13:10:00.555Z"
}