{
  "contractName": "LeaveSystem",
  "abi": [
    {
      "inputs": [],
      "payable": false,
      "stateMutability": "nonpayable",
      "type": "constructor"
    },
    {
      "anonymous": false,
      "inputs": [
        {
          "indexed": false,
          "name": "user",
          "type": "address"
        }
      ],
      "name": "UserJoined",
      "type": "event"
    },
    {
      "anonymous": false,
      "inputs": [
        {
          "indexed": false,
          "name": "user",
          "type": "address"
        },
        {
          "indexed": false,
          "name": "leaves",
          "type": "uint256"
        }
      ],
      "name": "LeaveApplied",
      "type": "event"
    },
    {
      "anonymous": false,
      "inputs": [
        {
          "indexed": false,
          "name": "leave_index",
          "type": "uint256"
        }
      ],
      "name": "LeaveApproved",
      "type": "event"
    },
    {
      "anonymous": false,
      "inputs": [
        {
          "indexed": false,
          "name": "leave_index",
          "type": "uint256"
        }
      ],
      "name": "LeaveDisallowed",
      "type": "event"
    },
    {
      "constant": false,
      "inputs": [
        {
          "name": "userId",
          "type": "uint256"
        },
        {
          "name": "leave_balance",
          "type": "uint256"
        }
      ],
      "name": "joinUser",
      "outputs": [],
      "payable": false,
      "stateMutability": "nonpayable",
      "type": "function"
    },
    {
      "constant": false,
      "inputs": [
        {
          "name": "addr",
          "type": "address"
        }
      ],
      "name": "resetLeaves",
      "outputs": [],
      "payable": false,
      "stateMutability": "nonpayable",
      "type": "function"
    },
    {
      "constant": false,
      "inputs": [
        {
          "name": "no_days",
          "type": "uint256"
        },
        {
          "name": "id",
          "type": "uint256"
        }
      ],
      "name": "applyLeave",
      "outputs": [],
      "payable": false,
      "stateMutability": "nonpayable",
      "type": "function"
    },
    {
      "constant": false,
      "inputs": [
        {
          "name": "leave_index",
          "type": "uint256"
        }
      ],
      "name": "approveLeave",
      "outputs": [],
      "payable": false,
      "stateMutability": "nonpayable",
      "type": "function"
    },
    {
      "constant": false,
      "inputs": [
        {
          "name": "leave_index",
          "type": "uint256"
        }
      ],
      "name": "disallowLeave",
      "outputs": [],
      "payable": false,
      "stateMutability": "nonpayable",
      "type": "function"
    },
    {
      "constant": false,
      "inputs": [
        {
          "name": "employee",
          "type": "address"
        },
        {
          "name": "monthly_leaves",
          "type": "uint256"
        }
      ],
      "name": "addEmployeeLeave",
      "outputs": [],
      "payable": false,
      "stateMutability": "nonpayable",
      "type": "function"
    },
    {
      "constant": true,
      "inputs": [],
      "name": "getLeaveBalance",
      "outputs": [
        {
          "name": "",
          "type": "uint256"
        }
      ],
      "payable": false,
      "stateMutability": "view",
      "type": "function"
    },
    {
      "constant": true,
      "inputs": [
        {
          "name": "addr",
          "type": "address"
        }
      ],
      "name": "getEmployeeLeaveBalance",
      "outputs": [
        {
          "name": "",
          "type": "uint256"
        }
      ],
      "payable": false,
      "stateMutability": "view",
      "type": "function"
    }
  ],
  "bytecode": "0x6060604052341561000f57600080fd5b336000806101000a81548173ffffffffffffffffffffffffffffffffffffffff021916908373ffffffffffffffffffffffffffffffffffffffff1602179055506110818061005e6000396000f30060606040526004361061008e576000357c0100000000000000000000000000000000000000000000000000000000900463ffffffff1680630c32c55c146100935780632bcce18f146100d557806368f4ab75146101015780636c492ce31461012d578063a39bc1ae14610166578063a840da9814610189578063c2f4a4b8146101d6578063d1ef4f63146101f9575b600080fd5b341561009e57600080fd5b6100d3600480803573ffffffffffffffffffffffffffffffffffffffff16906020019091908035906020019091905050610222565b005b34156100e057600080fd5b6100ff60048080359060200190919080359060200190919050506102d1565b005b341561010c57600080fd5b61012b600480803590602001909190803590602001909190505061041e565b005b341561013857600080fd5b610164600480803573ffffffffffffffffffffffffffffffffffffffff1690602001909190505061069f565b005b341561017157600080fd5b610187600480803590602001909190505061074f565b005b341561019457600080fd5b6101c0600480803573ffffffffffffffffffffffffffffffffffffffff16906020019091905050610b2c565b6040518082815260200191505060405180910390f35b34156101e157600080fd5b6101f76004808035906020019091905050610bd3565b005b341561020457600080fd5b61020c610ec1565b6040518082815260200191505060405180910390f35b6000809054906101000a900473ffffffffffffffffffffffffffffffffffffffff1673ffffffffffffffffffffffffffffffffffffffff163373ffffffffffffffffffffffffffffffffffffffff1614151561027d57600080fd5b80600160008473ffffffffffffffffffffffffffffffffffffffff1673ffffffffffffffffffffffffffffffffffffffff168152602001908152602001600020600101600082825401925050819055505050565b6102d9610f0b565b6000831115156102e857600080fd5b6000821115156102f757600080fd5b6000600160003373ffffffffffffffffffffffffffffffffffffffff1673ffffffffffffffffffffffffffffffffffffffff1681526020019081526020016000206000015414151561034857600080fd5b604080519081016040528084815260200183815250905080600160003373ffffffffffffffffffffffffffffffffffffffff1673ffffffffffffffffffffffffffffffffffffffff16815260200190815260200160002060008201518160000155602082015181600101559050507f4028b92b6812cf0ad64ad14283561bd81eaf1d9e718a6eabcfd40016f83bd1e933604051808273ffffffffffffffffffffffffffffffffffffffff1673ffffffffffffffffffffffffffffffffffffffff16815260200191505060405180910390a1505050565b610426610f25565b60008311151561043557600080fd5b6000600160003373ffffffffffffffffffffffffffffffffffffffff1673ffffffffffffffffffffffffffffffffffffffff16815260200190815260200160002060000154141561048557600080fd5b82600160003373ffffffffffffffffffffffffffffffffffffffff1673ffffffffffffffffffffffffffffffffffffffff168152602001908152602001600020600101541115156104d557600080fd5b60c0604051908101604052808381526020018481526020016000151581526020013373ffffffffffffffffffffffffffffffffffffffff16815260200160008152602001600073ffffffffffffffffffffffffffffffffffffffff1681525090506002805480600101828161054a9190610f8a565b91600052602060002090600502016000839091909150600082015181600001556020820151816001015560408201518160020160006101000a81548160ff02191690831515021790555060608201518160020160016101000a81548173ffffffffffffffffffffffffffffffffffffffff021916908373ffffffffffffffffffffffffffffffffffffffff1602179055506080820151816003015560a08201518160040160006101000a81548173ffffffffffffffffffffffffffffffffffffffff021916908373ffffffffffffffffffffffffffffffffffffffff1602179055505050507f5b1c7e0d74c949689e7dda74fc61f454bbf5895102bb71b95a7af806102cf0cb3384604051808373ffffffffffffffffffffffffffffffffffffffff1673ffffffffffffffffffffffffffffffffffffffff1681526020018281526020019250505060405180910390a1505050565b6000809054906101000a900473ffffffffffffffffffffffffffffffffffffffff1673ffffffffffffffffffffffffffffffffffffffff163373ffffffffffffffffffffffffffffffffffffffff161415156106fa57600080fd5b600160008273ffffffffffffffffffffffffffffffffffffffff1673ffffffffffffffffffffffffffffffffffffffff1681526020019081526020016000206000808201600090556001820160009055505050565b610757610f25565b6000809054906101000a900473ffffffffffffffffffffffffffffffffffffffff1673ffffffffffffffffffffffffffffffffffffffff163373ffffffffffffffffffffffffffffffffffffffff161415156107b257600080fd5b6002828154811015156107c157fe5b906000526020600020906005020160c0604051908101604052908160008201548152602001600182015481526020016002820160009054906101000a900460ff161515151581526020016002820160019054906101000a900473ffffffffffffffffffffffffffffffffffffffff1673ffffffffffffffffffffffffffffffffffffffff1673ffffffffffffffffffffffffffffffffffffffff168152602001600382015481526020016004820160009054906101000a900473ffffffffffffffffffffffffffffffffffffffff1673ffffffffffffffffffffffffffffffffffffffff1673ffffffffffffffffffffffffffffffffffffffff16815250509050806020015160016000836060015173ffffffffffffffffffffffffffffffffffffffff1673ffffffffffffffffffffffffffffffffffffffff1681526020019081526020016000206001015411151561091a57600080fd5b806020015160016000836060015173ffffffffffffffffffffffffffffffffffffffff1673ffffffffffffffffffffffffffffffffffffffff168152602001908152602001600020600101540360016000836060015173ffffffffffffffffffffffffffffffffffffffff1673ffffffffffffffffffffffffffffffffffffffff168152602001908152602001600020600101819055506001816040019015159081151581525050338160a0019073ffffffffffffffffffffffffffffffffffffffff16908173ffffffffffffffffffffffffffffffffffffffff16815250504281608001818152505080600283815481101515610a1457fe5b9060005260206000209060050201600082015181600001556020820151816001015560408201518160020160006101000a81548160ff02191690831515021790555060608201518160020160016101000a81548173ffffffffffffffffffffffffffffffffffffffff021916908373ffffffffffffffffffffffffffffffffffffffff1602179055506080820151816003015560a08201518160040160006101000a81548173ffffffffffffffffffffffffffffffffffffffff021916908373ffffffffffffffffffffffffffffffffffffffff1602179055509050507f6527aed85d4bdb1699f360f8e892c09647c21c6f0d916171145095a2b0f99e37826040518082815260200191505060405180910390a15050565b60008060009054906101000a900473ffffffffffffffffffffffffffffffffffffffff1673ffffffffffffffffffffffffffffffffffffffff163373ffffffffffffffffffffffffffffffffffffffff16141515610b8957600080fd5b600160008373ffffffffffffffffffffffffffffffffffffffff1673ffffffffffffffffffffffffffffffffffffffff168152602001908152602001600020600101549050919050565b610bdb610f25565b6000809054906101000a900473ffffffffffffffffffffffffffffffffffffffff1673ffffffffffffffffffffffffffffffffffffffff163373ffffffffffffffffffffffffffffffffffffffff16141515610c3657600080fd5b600282815481101515610c4557fe5b906000526020600020906005020160c0604051908101604052908160008201548152602001600182015481526020016002820160009054906101000a900460ff161515151581526020016002820160019054906101000a900473ffffffffffffffffffffffffffffffffffffffff1673ffffffffffffffffffffffffffffffffffffffff1673ffffffffffffffffffffffffffffffffffffffff168152602001600382015481526020016004820160009054906101000a900473ffffffffffffffffffffffffffffffffffffffff1673ffffffffffffffffffffffffffffffffffffffff1673ffffffffffffffffffffffffffffffffffffffff168152505090506000816040019015159081151581525050338160a0019073ffffffffffffffffffffffffffffffffffffffff16908173ffffffffffffffffffffffffffffffffffffffff16815250504281608001818152505080600283815481101515610da957fe5b9060005260206000209060050201600082015181600001556020820151816001015560408201518160020160006101000a81548160ff02191690831515021790555060608201518160020160016101000a81548173ffffffffffffffffffffffffffffffffffffffff021916908373ffffffffffffffffffffffffffffffffffffffff1602179055506080820151816003015560a08201518160040160006101000a81548173ffffffffffffffffffffffffffffffffffffffff021916908373ffffffffffffffffffffffffffffffffffffffff1602179055509050507f8ccc4e72d664fa5c7a52e2d8e0c075715e11bde86ce9840f2a92b01cf90951a4826040518082815260200191505060405180910390a15050565b6000600160003373ffffffffffffffffffffffffffffffffffffffff1673ffffffffffffffffffffffffffffffffffffffff16815260200190815260200160002060010154905090565b604080519081016040528060008152602001600081525090565b60c0604051908101604052806000815260200160008152602001600015158152602001600073ffffffffffffffffffffffffffffffffffffffff16815260200160008152602001600073ffffffffffffffffffffffffffffffffffffffff1681525090565b815481835581811511610fb757600502816005028360005260206000209182019101610fb69190610fbc565b5b505050565b61105291905b8082111561104e5760008082016000905560018201600090556002820160006101000a81549060ff02191690556002820160016101000a81549073ffffffffffffffffffffffffffffffffffffffff021916905560038201600090556004820160006101000a81549073ffffffffffffffffffffffffffffffffffffffff021916905550600501610fc2565b5090565b905600a165627a7a723058209e453c686170464fed189ff64e212829386e14a416855464615539a7c59b8f480029",
  "source": "pragma solidity ^0.4.19;\r\n\r\ncontract LeaveSystem {\r\n    //data type of employee\r\n\tstruct Employee {\r\n\t    uint id; // id of employee from database\r\n\t    uint leaves;  //starting leave balance of employee\r\n\t}\r\n\t\r\n\tstruct Leave {\r\n\t    uint id;  //actual id of leave from database\r\n\t    uint no_days;  //number of days for which leave is applied\r\n\t    bool approved; // if leave is approved or not \r\n\t    address by; // person who applied the leave\r\n\t    uint action_at; // at what time was leave approved/disallowed \r\n\t    address action_by; // who approved/disallowed leave\r\n\t}\r\n\t\r\n\t//owner of the contract \r\n\taddress owner;\r\n\t\r\n\t//maintain a leave balance\r\n\tmapping (address => Employee) private leaveBalance;\r\n    \r\n    Leave[] private leaves;\r\n\t\r\n\tmodifier isOwner { require(msg.sender == owner); _; }\r\n\t\r\n\t//constructor\r\n\tfunction LeaveSystem() public {\r\n\t    owner = msg.sender;\r\n\t}\r\n\t\r\n\t//event to notify when a new user has joined\r\n\tevent UserJoined(address user);\r\n\tevent LeaveApplied(address user, uint leaves);\r\n\tevent LeaveApproved(uint leave_index);\r\n\tevent LeaveDisallowed(uint leave_index);\r\n\t\r\n\t//function to add user to contract\r\n\tfunction joinUser(uint userId, uint leave_balance) public {\r\n\t    require(userId > 0);  //actual database user id from hr system\r\n\t    require(leave_balance > 0);  //no leaves user has from hr system\r\n\t    if(leaveBalance[msg.sender].id != 0) revert(); //revert if user already exists\r\n\t    \r\n\t    Employee memory user = Employee(userId, leave_balance);\r\n\t    leaveBalance[msg.sender] = user;\r\n\t    \r\n\t    UserJoined(msg.sender);\r\n\t}\r\n\t\r\n\tfunction resetLeaves(address addr) public isOwner {\r\n\t    delete leaveBalance[addr];\r\n\t}\r\n\t\r\n\tfunction applyLeave(uint no_days, uint id) public{\r\n\t     require(no_days > 0);\r\n\t     if(leaveBalance[msg.sender].id == 0) revert();\r\n\t     require(leaveBalance[msg.sender].leaves > no_days);\r\n\t     \r\n\t     Leave memory leave = Leave(id,no_days, false, msg.sender,0,address(0));\r\n\t     leaves.push(leave);\r\n\t     LeaveApplied(msg.sender,no_days);\r\n\t}\r\n\t\r\n\tfunction approveLeave(uint leave_index) public isOwner{\r\n\t    Leave memory leave = leaves[leave_index];\r\n\t    require(leaveBalance[leave.by].leaves > leave.no_days);\r\n\t    leaveBalance[leave.by].leaves = leaveBalance[leave.by].leaves - leave.no_days;\r\n\t    leave.approved = true;\r\n\t    leave.action_by = msg.sender;\r\n\t    leave.action_at = now;\r\n\t    leaves[leave_index] = leave;\r\n\t    //delete leaves[leave_index];\r\n\t    // if we don't delete the leaves it will keep on charging more gas.\r\n\t    // https://ethereum.stackexchange.com/questions/872/what-is-the-cost-to-store-1kb-10kb-100kb-worth-of-data-into-the-ethereum-block\r\n\t    // so need a better solution\r\n\t    // but we need to keep all leave history as well.\r\n\t    LeaveApproved(leave_index);\r\n\t}\r\n\t\r\n\tfunction disallowLeave(uint leave_index) public isOwner{\r\n\t    Leave memory leave = leaves[leave_index];\r\n\t    leave.approved = false;\r\n\t    leave.action_by = msg.sender;\r\n\t    leave.action_at = now;\r\n\t    leaves[leave_index] = leave;\r\n\t    LeaveDisallowed(leave_index);\r\n\t}\r\n\t\r\n\t//employee earn leaves every month\r\n\tfunction addEmployeeLeave(address employee, uint monthly_leaves) public isOwner {\r\n\t    leaveBalance[employee].leaves += monthly_leaves;\r\n\t}\r\n\t\r\n\t//each user can his leave balance\r\n\tfunction getLeaveBalance() public constant returns (uint){\r\n\t    return leaveBalance[msg.sender].leaves;\r\n\t}\r\n\t\r\n\t// get leave balance of any employee\r\n\tfunction getEmployeeLeaveBalance(address addr) public isOwner constant returns (uint){\r\n\t    return (leaveBalance[addr].leaves);\r\n\t}\r\n}",
  "sourcePath": "C:\\Users\\etech\\Desktop\\web3js\\leave-system-solidity-truffle\\contracts\\LeaveSystem.sol",
  "compiler": {
    "name": "solc",
    "version": "0.4.19+commit.c4cbbb05.Emscripten.clang"
  },
  "schemaVersion": "2.0.0",
  "updatedAt": "2018-03-30T05:26:23.272Z"
}